{
  "_format": "hh-sol-artifact-1",
  "contractName": "MyGovernor",
  "sourceName": "contracts/MyGovernor.sol",
  "abi": [
    {
      "inputs": [
        {
          "internalType": "contract IVotes",
          "name": "_token",
          "type": "address"
        },
        {
          "internalType": "contract ICompoundTimelock",
          "name": "_timelock",
          "type": "address"
        },
        {
          "internalType": "contract IMyGovernorHelper",
          "name": "_helper",
          "type": "address"
        }
      ],
      "stateMutability": "nonpayable",
      "type": "constructor"
    },
    {
      "inputs": [],
      "name": "Empty",
      "type": "error"
    },
    {
      "anonymous": false,
      "inputs": [
        {
          "indexed": false,
          "internalType": "uint256",
          "name": "proposalId",
          "type": "uint256"
        }
      ],
      "name": "ProposalCanceled",
      "type": "event"
    },
    {
      "anonymous": false,
      "inputs": [
        {
          "indexed": false,
          "internalType": "uint256",
          "name": "proposalId",
          "type": "uint256"
        },
        {
          "indexed": false,
          "internalType": "address",
          "name": "proposer",
          "type": "address"
        },
        {
          "indexed": false,
          "internalType": "address[]",
          "name": "targets",
          "type": "address[]"
        },
        {
          "indexed": false,
          "internalType": "uint256[]",
          "name": "values",
          "type": "uint256[]"
        },
        {
          "indexed": false,
          "internalType": "string[]",
          "name": "signatures",
          "type": "string[]"
        },
        {
          "indexed": false,
          "internalType": "bytes[]",
          "name": "calldatas",
          "type": "bytes[]"
        },
        {
          "indexed": false,
          "internalType": "uint256",
          "name": "startBlock",
          "type": "uint256"
        },
        {
          "indexed": false,
          "internalType": "uint256",
          "name": "endBlock",
          "type": "uint256"
        },
        {
          "indexed": false,
          "internalType": "string",
          "name": "description",
          "type": "string"
        }
      ],
      "name": "ProposalCreated",
      "type": "event"
    },
    {
      "anonymous": false,
      "inputs": [
        {
          "indexed": false,
          "internalType": "uint256",
          "name": "proposalId",
          "type": "uint256"
        }
      ],
      "name": "ProposalExecuted",
      "type": "event"
    },
    {
      "anonymous": false,
      "inputs": [
        {
          "indexed": false,
          "internalType": "uint256",
          "name": "proposalId",
          "type": "uint256"
        },
        {
          "indexed": false,
          "internalType": "uint256",
          "name": "eta",
          "type": "uint256"
        }
      ],
      "name": "ProposalQueued",
      "type": "event"
    },
    {
      "anonymous": false,
      "inputs": [
        {
          "indexed": false,
          "internalType": "uint256",
          "name": "oldProposalThreshold",
          "type": "uint256"
        },
        {
          "indexed": false,
          "internalType": "uint256",
          "name": "newProposalThreshold",
          "type": "uint256"
        }
      ],
      "name": "ProposalThresholdSet",
      "type": "event"
    },
    {
      "anonymous": false,
      "inputs": [
        {
          "indexed": false,
          "internalType": "address",
          "name": "oldTimelock",
          "type": "address"
        },
        {
          "indexed": false,
          "internalType": "address",
          "name": "newTimelock",
          "type": "address"
        }
      ],
      "name": "TimelockChange",
      "type": "event"
    },
    {
      "anonymous": false,
      "inputs": [
        {
          "indexed": true,
          "internalType": "address",
          "name": "voter",
          "type": "address"
        },
        {
          "indexed": false,
          "internalType": "uint256",
          "name": "proposalId",
          "type": "uint256"
        },
        {
          "indexed": false,
          "internalType": "uint8",
          "name": "support",
          "type": "uint8"
        },
        {
          "indexed": false,
          "internalType": "uint256",
          "name": "weight",
          "type": "uint256"
        },
        {
          "indexed": false,
          "internalType": "string",
          "name": "reason",
          "type": "string"
        }
      ],
      "name": "VoteCast",
      "type": "event"
    },
    {
      "anonymous": false,
      "inputs": [
        {
          "indexed": true,
          "internalType": "address",
          "name": "voter",
          "type": "address"
        },
        {
          "indexed": false,
          "internalType": "uint256",
          "name": "proposalId",
          "type": "uint256"
        },
        {
          "indexed": false,
          "internalType": "uint8",
          "name": "support",
          "type": "uint8"
        },
        {
          "indexed": false,
          "internalType": "uint256",
          "name": "weight",
          "type": "uint256"
        },
        {
          "indexed": false,
          "internalType": "string",
          "name": "reason",
          "type": "string"
        },
        {
          "indexed": false,
          "internalType": "bytes",
          "name": "params",
          "type": "bytes"
        }
      ],
      "name": "VoteCastWithParams",
      "type": "event"
    },
    {
      "anonymous": false,
      "inputs": [
        {
          "indexed": false,
          "internalType": "uint256",
          "name": "oldVotingDelay",
          "type": "uint256"
        },
        {
          "indexed": false,
          "internalType": "uint256",
          "name": "newVotingDelay",
          "type": "uint256"
        }
      ],
      "name": "VotingDelaySet",
      "type": "event"
    },
    {
      "anonymous": false,
      "inputs": [
        {
          "indexed": false,
          "internalType": "uint256",
          "name": "oldVotingPeriod",
          "type": "uint256"
        },
        {
          "indexed": false,
          "internalType": "uint256",
          "name": "newVotingPeriod",
          "type": "uint256"
        }
      ],
      "name": "VotingPeriodSet",
      "type": "event"
    },
    {
      "inputs": [],
      "name": "BALLOT_TYPEHASH",
      "outputs": [
        {
          "internalType": "bytes32",
          "name": "",
          "type": "bytes32"
        }
      ],
      "stateMutability": "view",
      "type": "function"
    },
    {
      "inputs": [],
      "name": "COUNTING_MODE",
      "outputs": [
        {
          "internalType": "string",
          "name": "",
          "type": "string"
        }
      ],
      "stateMutability": "pure",
      "type": "function"
    },
    {
      "inputs": [],
      "name": "EXTENDED_BALLOT_TYPEHASH",
      "outputs": [
        {
          "internalType": "bytes32",
          "name": "",
          "type": "bytes32"
        }
      ],
      "stateMutability": "view",
      "type": "function"
    },
    {
      "inputs": [],
      "name": "__acceptAdmin",
      "outputs": [],
      "stateMutability": "nonpayable",
      "type": "function"
    },
    {
      "inputs": [
        {
          "internalType": "uint256",
          "name": "proposalId",
          "type": "uint256"
        },
        {
          "internalType": "uint8",
          "name": "support",
          "type": "uint8"
        }
      ],
      "name": "castVote",
      "outputs": [
        {
          "internalType": "uint256",
          "name": "",
          "type": "uint256"
        }
      ],
      "stateMutability": "nonpayable",
      "type": "function"
    },
    {
      "inputs": [
        {
          "internalType": "uint256",
          "name": "proposalId",
          "type": "uint256"
        },
        {
          "internalType": "uint8",
          "name": "support",
          "type": "uint8"
        }
      ],
      "name": "castVoteAllIn",
      "outputs": [
        {
          "internalType": "uint256",
          "name": "",
          "type": "uint256"
        }
      ],
      "stateMutability": "payable",
      "type": "function"
    },
    {
      "inputs": [
        {
          "internalType": "uint256",
          "name": "proposalId",
          "type": "uint256"
        },
        {
          "internalType": "uint8",
          "name": "support",
          "type": "uint8"
        },
        {
          "internalType": "uint8",
          "name": "v",
          "type": "uint8"
        },
        {
          "internalType": "bytes32",
          "name": "r",
          "type": "bytes32"
        },
        {
          "internalType": "bytes32",
          "name": "s",
          "type": "bytes32"
        }
      ],
      "name": "castVoteBySig",
      "outputs": [
        {
          "internalType": "uint256",
          "name": "",
          "type": "uint256"
        }
      ],
      "stateMutability": "nonpayable",
      "type": "function"
    },
    {
      "inputs": [
        {
          "internalType": "uint256",
          "name": "proposalId",
          "type": "uint256"
        },
        {
          "internalType": "uint8",
          "name": "support",
          "type": "uint8"
        }
      ],
      "name": "castVoteSimple",
      "outputs": [
        {
          "internalType": "uint256",
          "name": "",
          "type": "uint256"
        }
      ],
      "stateMutability": "payable",
      "type": "function"
    },
    {
      "inputs": [
        {
          "internalType": "uint256",
          "name": "proposalId",
          "type": "uint256"
        },
        {
          "internalType": "uint8",
          "name": "support",
          "type": "uint8"
        },
        {
          "internalType": "string",
          "name": "reason",
          "type": "string"
        }
      ],
      "name": "castVoteWithReason",
      "outputs": [
        {
          "internalType": "uint256",
          "name": "",
          "type": "uint256"
        }
      ],
      "stateMutability": "nonpayable",
      "type": "function"
    },
    {
      "inputs": [
        {
          "internalType": "uint256",
          "name": "proposalId",
          "type": "uint256"
        },
        {
          "internalType": "uint8",
          "name": "support",
          "type": "uint8"
        },
        {
          "internalType": "string",
          "name": "reason",
          "type": "string"
        },
        {
          "internalType": "bytes",
          "name": "params",
          "type": "bytes"
        }
      ],
      "name": "castVoteWithReasonAndParams",
      "outputs": [
        {
          "internalType": "uint256",
          "name": "",
          "type": "uint256"
        }
      ],
      "stateMutability": "nonpayable",
      "type": "function"
    },
    {
      "inputs": [
        {
          "internalType": "uint256",
          "name": "proposalId",
          "type": "uint256"
        },
        {
          "internalType": "uint8",
          "name": "support",
          "type": "uint8"
        },
        {
          "internalType": "string",
          "name": "reason",
          "type": "string"
        },
        {
          "internalType": "bytes",
          "name": "params",
          "type": "bytes"
        },
        {
          "internalType": "uint8",
          "name": "v",
          "type": "uint8"
        },
        {
          "internalType": "bytes32",
          "name": "r",
          "type": "bytes32"
        },
        {
          "internalType": "bytes32",
          "name": "s",
          "type": "bytes32"
        }
      ],
      "name": "castVoteWithReasonAndParamsBySig",
      "outputs": [
        {
          "internalType": "uint256",
          "name": "",
          "type": "uint256"
        }
      ],
      "stateMutability": "nonpayable",
      "type": "function"
    },
    {
      "inputs": [
        {
          "internalType": "address[]",
          "name": "targets",
          "type": "address[]"
        },
        {
          "internalType": "uint256[]",
          "name": "values",
          "type": "uint256[]"
        },
        {
          "internalType": "bytes[]",
          "name": "calldatas",
          "type": "bytes[]"
        },
        {
          "internalType": "bytes32",
          "name": "descriptionHash",
          "type": "bytes32"
        }
      ],
      "name": "execute",
      "outputs": [
        {
          "internalType": "uint256",
          "name": "",
          "type": "uint256"
        }
      ],
      "stateMutability": "payable",
      "type": "function"
    },
    {
      "inputs": [],
      "name": "getBalance",
      "outputs": [
        {
          "internalType": "uint256",
          "name": "",
          "type": "uint256"
        }
      ],
      "stateMutability": "view",
      "type": "function"
    },
    {
      "inputs": [
        {
          "internalType": "uint256",
          "name": "proposalId",
          "type": "uint256"
        }
      ],
      "name": "getProposerBudget",
      "outputs": [
        {
          "internalType": "uint256",
          "name": "",
          "type": "uint256"
        }
      ],
      "stateMutability": "view",
      "type": "function"
    },
    {
      "inputs": [
        {
          "internalType": "uint256",
          "name": "proposalId",
          "type": "uint256"
        }
      ],
      "name": "getProposerName",
      "outputs": [
        {
          "internalType": "address",
          "name": "",
          "type": "address"
        }
      ],
      "stateMutability": "view",
      "type": "function"
    },
    {
      "inputs": [
        {
          "internalType": "address",
          "name": "account",
          "type": "address"
        },
        {
          "internalType": "uint256",
          "name": "blockNumber",
          "type": "uint256"
        }
      ],
      "name": "getVotes",
      "outputs": [
        {
          "internalType": "uint256",
          "name": "",
          "type": "uint256"
        }
      ],
      "stateMutability": "view",
      "type": "function"
    },
    {
      "inputs": [
        {
          "internalType": "address",
          "name": "account",
          "type": "address"
        },
        {
          "internalType": "uint256",
          "name": "blockNumber",
          "type": "uint256"
        },
        {
          "internalType": "bytes",
          "name": "params",
          "type": "bytes"
        }
      ],
      "name": "getVotesWithParams",
      "outputs": [
        {
          "internalType": "uint256",
          "name": "",
          "type": "uint256"
        }
      ],
      "stateMutability": "view",
      "type": "function"
    },
    {
      "inputs": [
        {
          "internalType": "uint256",
          "name": "proposalId",
          "type": "uint256"
        },
        {
          "internalType": "address",
          "name": "account",
          "type": "address"
        }
      ],
      "name": "hasVoted",
      "outputs": [
        {
          "internalType": "bool",
          "name": "",
          "type": "bool"
        }
      ],
      "stateMutability": "view",
      "type": "function"
    },
    {
      "inputs": [
        {
          "internalType": "address[]",
          "name": "targets",
          "type": "address[]"
        },
        {
          "internalType": "uint256[]",
          "name": "values",
          "type": "uint256[]"
        },
        {
          "internalType": "bytes[]",
          "name": "calldatas",
          "type": "bytes[]"
        },
        {
          "internalType": "bytes32",
          "name": "descriptionHash",
          "type": "bytes32"
        }
      ],
      "name": "hashProposal",
      "outputs": [
        {
          "internalType": "uint256",
          "name": "",
          "type": "uint256"
        }
      ],
      "stateMutability": "pure",
      "type": "function"
    },
    {
      "inputs": [],
      "name": "helper",
      "outputs": [
        {
          "internalType": "address",
          "name": "",
          "type": "address"
        }
      ],
      "stateMutability": "view",
      "type": "function"
    },
    {
      "inputs": [],
      "name": "name",
      "outputs": [
        {
          "internalType": "string",
          "name": "",
          "type": "string"
        }
      ],
      "stateMutability": "view",
      "type": "function"
    },
    {
      "inputs": [
        {
          "internalType": "address",
          "name": "",
          "type": "address"
        },
        {
          "internalType": "address",
          "name": "",
          "type": "address"
        },
        {
          "internalType": "uint256[]",
          "name": "",
          "type": "uint256[]"
        },
        {
          "internalType": "uint256[]",
          "name": "",
          "type": "uint256[]"
        },
        {
          "internalType": "bytes",
          "name": "",
          "type": "bytes"
        }
      ],
      "name": "onERC1155BatchReceived",
      "outputs": [
        {
          "internalType": "bytes4",
          "name": "",
          "type": "bytes4"
        }
      ],
      "stateMutability": "nonpayable",
      "type": "function"
    },
    {
      "inputs": [
        {
          "internalType": "address",
          "name": "",
          "type": "address"
        },
        {
          "internalType": "address",
          "name": "",
          "type": "address"
        },
        {
          "internalType": "uint256",
          "name": "",
          "type": "uint256"
        },
        {
          "internalType": "uint256",
          "name": "",
          "type": "uint256"
        },
        {
          "internalType": "bytes",
          "name": "",
          "type": "bytes"
        }
      ],
      "name": "onERC1155Received",
      "outputs": [
        {
          "internalType": "bytes4",
          "name": "",
          "type": "bytes4"
        }
      ],
      "stateMutability": "nonpayable",
      "type": "function"
    },
    {
      "inputs": [
        {
          "internalType": "address",
          "name": "",
          "type": "address"
        },
        {
          "internalType": "address",
          "name": "",
          "type": "address"
        },
        {
          "internalType": "uint256",
          "name": "",
          "type": "uint256"
        },
        {
          "internalType": "bytes",
          "name": "",
          "type": "bytes"
        }
      ],
      "name": "onERC721Received",
      "outputs": [
        {
          "internalType": "bytes4",
          "name": "",
          "type": "bytes4"
        }
      ],
      "stateMutability": "nonpayable",
      "type": "function"
    },
    {
      "inputs": [],
      "name": "owner",
      "outputs": [
        {
          "internalType": "address",
          "name": "",
          "type": "address"
        }
      ],
      "stateMutability": "view",
      "type": "function"
    },
    {
      "inputs": [
        {
          "internalType": "uint256",
          "name": "proposalId",
          "type": "uint256"
        }
      ],
      "name": "proposalDeadline",
      "outputs": [
        {
          "internalType": "uint256",
          "name": "",
          "type": "uint256"
        }
      ],
      "stateMutability": "view",
      "type": "function"
    },
    {
      "inputs": [
        {
          "internalType": "uint256",
          "name": "proposalId",
          "type": "uint256"
        }
      ],
      "name": "proposalEta",
      "outputs": [
        {
          "internalType": "uint256",
          "name": "",
          "type": "uint256"
        }
      ],
      "stateMutability": "view",
      "type": "function"
    },
    {
      "inputs": [
        {
          "internalType": "uint256",
          "name": "proposalId",
          "type": "uint256"
        }
      ],
      "name": "proposalSnapshot",
      "outputs": [
        {
          "internalType": "uint256",
          "name": "",
          "type": "uint256"
        }
      ],
      "stateMutability": "view",
      "type": "function"
    },
    {
      "inputs": [],
      "name": "proposalThreshold",
      "outputs": [
        {
          "internalType": "uint256",
          "name": "",
          "type": "uint256"
        }
      ],
      "stateMutability": "view",
      "type": "function"
    },
    {
      "inputs": [
        {
          "internalType": "uint256",
          "name": "proposalId",
          "type": "uint256"
        }
      ],
      "name": "proposalVotes",
      "outputs": [
        {
          "internalType": "uint256",
          "name": "againstVotes",
          "type": "uint256"
        },
        {
          "internalType": "uint256",
          "name": "forVotes",
          "type": "uint256"
        },
        {
          "internalType": "uint256",
          "name": "abstainVotes",
          "type": "uint256"
        }
      ],
      "stateMutability": "view",
      "type": "function"
    },
    {
      "inputs": [
        {
          "internalType": "address[]",
          "name": "targets",
          "type": "address[]"
        },
        {
          "internalType": "uint256[]",
          "name": "values",
          "type": "uint256[]"
        },
        {
          "internalType": "bytes[]",
          "name": "calldatas",
          "type": "bytes[]"
        },
        {
          "internalType": "string",
          "name": "description",
          "type": "string"
        }
      ],
      "name": "propose",
      "outputs": [
        {
          "internalType": "uint256",
          "name": "",
          "type": "uint256"
        }
      ],
      "stateMutability": "nonpayable",
      "type": "function"
    },
    {
      "inputs": [
        {
          "internalType": "uint256",
          "name": "proposalId",
          "type": "uint256"
        }
      ],
      "name": "quadraticVoting",
      "outputs": [],
      "stateMutability": "payable",
      "type": "function"
    },
    {
      "inputs": [
        {
          "internalType": "address[]",
          "name": "targets",
          "type": "address[]"
        },
        {
          "internalType": "uint256[]",
          "name": "values",
          "type": "uint256[]"
        },
        {
          "internalType": "bytes[]",
          "name": "calldatas",
          "type": "bytes[]"
        },
        {
          "internalType": "bytes32",
          "name": "descriptionHash",
          "type": "bytes32"
        }
      ],
      "name": "queue",
      "outputs": [
        {
          "internalType": "uint256",
          "name": "",
          "type": "uint256"
        }
      ],
      "stateMutability": "nonpayable",
      "type": "function"
    },
    {
      "inputs": [
        {
          "internalType": "uint256",
          "name": "blockNumber",
          "type": "uint256"
        }
      ],
      "name": "quorum",
      "outputs": [
        {
          "internalType": "uint256",
          "name": "",
          "type": "uint256"
        }
      ],
      "stateMutability": "pure",
      "type": "function"
    },
    {
      "inputs": [
        {
          "internalType": "address",
          "name": "target",
          "type": "address"
        },
        {
          "internalType": "uint256",
          "name": "value",
          "type": "uint256"
        },
        {
          "internalType": "bytes",
          "name": "data",
          "type": "bytes"
        }
      ],
      "name": "relay",
      "outputs": [],
      "stateMutability": "nonpayable",
      "type": "function"
    },
    {
      "inputs": [
        {
          "internalType": "uint256",
          "name": "proposalId",
          "type": "uint256"
        },
        {
          "internalType": "uint256",
          "name": "budget",
          "type": "uint256"
        }
      ],
      "name": "setProposalBudget",
      "outputs": [],
      "stateMutability": "nonpayable",
      "type": "function"
    },
    {
      "inputs": [
        {
          "internalType": "uint256",
          "name": "newProposalThreshold",
          "type": "uint256"
        }
      ],
      "name": "setProposalThreshold",
      "outputs": [],
      "stateMutability": "nonpayable",
      "type": "function"
    },
    {
      "inputs": [
        {
          "internalType": "uint256",
          "name": "newVotingDelay",
          "type": "uint256"
        }
      ],
      "name": "setVotingDelay",
      "outputs": [],
      "stateMutability": "nonpayable",
      "type": "function"
    },
    {
      "inputs": [
        {
          "internalType": "uint256",
          "name": "newVotingPeriod",
          "type": "uint256"
        }
      ],
      "name": "setVotingPeriod",
      "outputs": [],
      "stateMutability": "nonpayable",
      "type": "function"
    },
    {
      "inputs": [
        {
          "internalType": "uint256",
          "name": "proposalId",
          "type": "uint256"
        }
      ],
      "name": "state",
      "outputs": [
        {
          "internalType": "enum IGovernor.ProposalState",
          "name": "",
          "type": "uint8"
        }
      ],
      "stateMutability": "view",
      "type": "function"
    },
    {
      "inputs": [
        {
          "internalType": "address[]",
          "name": "targets",
          "type": "address[]"
        },
        {
          "internalType": "uint256[]",
          "name": "values",
          "type": "uint256[]"
        },
        {
          "internalType": "bytes[]",
          "name": "calldatas",
          "type": "bytes[]"
        },
        {
          "internalType": "string",
          "name": "description",
          "type": "string"
        },
        {
          "internalType": "uint256",
          "name": "budgetGwei",
          "type": "uint256"
        }
      ],
      "name": "submitProposal",
      "outputs": [],
      "stateMutability": "nonpayable",
      "type": "function"
    },
    {
      "inputs": [
        {
          "internalType": "bytes4",
          "name": "interfaceId",
          "type": "bytes4"
        }
      ],
      "name": "supportsInterface",
      "outputs": [
        {
          "internalType": "bool",
          "name": "",
          "type": "bool"
        }
      ],
      "stateMutability": "view",
      "type": "function"
    },
    {
      "inputs": [],
      "name": "timelock",
      "outputs": [
        {
          "internalType": "address",
          "name": "",
          "type": "address"
        }
      ],
      "stateMutability": "view",
      "type": "function"
    },
    {
      "inputs": [],
      "name": "timelockAddress",
      "outputs": [
        {
          "internalType": "contract ICompoundTimelock",
          "name": "",
          "type": "address"
        }
      ],
      "stateMutability": "view",
      "type": "function"
    },
    {
      "inputs": [],
      "name": "token",
      "outputs": [
        {
          "internalType": "contract IVotes",
          "name": "",
          "type": "address"
        }
      ],
      "stateMutability": "view",
      "type": "function"
    },
    {
      "inputs": [],
      "name": "tokenAddress",
      "outputs": [
        {
          "internalType": "address",
          "name": "",
          "type": "address"
        }
      ],
      "stateMutability": "view",
      "type": "function"
    },
    {
      "inputs": [
        {
          "internalType": "address payable",
          "name": "_receiver",
          "type": "address"
        },
        {
          "internalType": "uint256",
          "name": "amount",
          "type": "uint256"
        }
      ],
      "name": "transferFunds",
      "outputs": [],
      "stateMutability": "payable",
      "type": "function"
    },
    {
      "inputs": [
        {
          "internalType": "contract ICompoundTimelock",
          "name": "newTimelock",
          "type": "address"
        }
      ],
      "name": "updateTimelock",
      "outputs": [],
      "stateMutability": "nonpayable",
      "type": "function"
    },
    {
      "inputs": [],
      "name": "version",
      "outputs": [
        {
          "internalType": "string",
          "name": "",
          "type": "string"
        }
      ],
      "stateMutability": "view",
      "type": "function"
    },
    {
      "inputs": [],
      "name": "votingDelay",
      "outputs": [
        {
          "internalType": "uint256",
          "name": "",
          "type": "uint256"
        }
      ],
      "stateMutability": "view",
      "type": "function"
    },
    {
      "inputs": [],
      "name": "votingPeriod",
      "outputs": [
        {
          "internalType": "uint256",
          "name": "",
          "type": "uint256"
        }
      ],
      "stateMutability": "view",
      "type": "function"
    },
    {
      "stateMutability": "payable",
      "type": "receive"
    }
  ],
  "bytecode": "0x6101606040523480156200001257600080fd5b506040516200480838038062004808833981016040819052620000359162000403565b81836001601460026040518060400160405280600a81526020016926bca3b7bb32b93737b960b11b8152508062000071620001b160201b60201c565b815160208084019190912082518383012060e08290526101008190524660a0818152604080517f8b73c3c69bb8fe3d512ecc4cf759cc79239f7b179b0ffacaa9a75d522b39400f81880181905281830187905260608201869052608082019490945230818401528151808203909301835260c00190528051940193909320919290916080523060601b60c05261012052505082516200011a92506000915060208401906200035d565b5062000128905083620001cc565b62000133826200020d565b6200013e81620002b3565b50505060601b6001600160601b031916610140526200015d81620002f4565b50600a80546001600160a01b039485166001600160a01b031991821617909155600d805492851692821692909217909155600b80549290931691811691909117909155600c805490911633179055620004ad565b6040805180820190915260018152603160f81b602082015290565b60045460408051918252602082018390527fc565b045403dc03c2eea82b81a0465edad9e2e7fc4d97e11421c209da93d7a93910160405180910390a1600455565b60008111620002725760405162461bcd60e51b815260206004820152602760248201527f476f7665726e6f7253657474696e67733a20766f74696e6720706572696f6420604482015266746f6f206c6f7760c81b606482015260840160405180910390fd5b60055460408051918252602082018390527f7e3f7f0708a84de9203036abaa450dccc85ad5ff52f78c170f3edb55cf5e8828910160405180910390a1600555565b60065460408051918252602082018390527fccb45da8d5717e6c4544694297c4ba5cf151d455c9bb0ed4fc7a38411bc05461910160405180910390a1600655565b600854604080516001600160a01b03928316815291831660208301527f08f74ea46ef7894f65eabfb5e6e695de773a000b47c529ab559178069b226401910160405180910390a1600880546001600160a01b0319166001600160a01b0392909216919091179055565b8280546200036b9062000457565b90600052602060002090601f0160209004810192826200038f5760008555620003da565b82601f10620003aa57805160ff1916838001178555620003da565b82800160010185558215620003da579182015b82811115620003da578251825591602001919060010190620003bd565b50620003e8929150620003ec565b5090565b5b80821115620003e85760008155600101620003ed565b6000806000606084860312156200041957600080fd5b8351620004268162000494565b6020850151909350620004398162000494565b60408501519092506200044c8162000494565b809150509250925092565b600181811c908216806200046c57607f821691505b602082108114156200048e57634e487b7160e01b600052602260045260246000fd5b50919050565b6001600160a01b0381168114620004aa57600080fd5b50565b60805160a05160c05160601c60e05161010051610120516101405160601c6142f362000515600039600081816109720152611fdc015260006129a6015260006129f5015260006129d001526000612929015260006129530152600061297d01526142f36000f3fe6080604052600436106102485760003560e01c806301ffc9a71461027057806302a251a3146102a557806303420181146102c857806306fdde03146102e857806312065fe01461030a578063150b7a021461031d578063160cbed714610361578063227588b5146103815780632656227d146103945780632d63f693146103a75780632fe3e261146103c75780633932abb1146103e95780633bccf4fd146103fe5780633e4f49e61461041e578063438596321461044b57806345df67ce146104955780634bc66f32146104d8578063544ffc9c146104f857806354fd4d501461054d57806356781388146105775780635d949972146105975780635f398a14146105b757806363b0e66a146105d757806369bd71a9146105f75780636a9bb0001461061757806370b0f660146106475780637b3c71d3146106675780637d5e81e2146106875780638da5cb5b146106a7578063990dc9db146106c75780639a802a6d146106da5780639c61248a146106fa5780639d76ea581461070d578063a890c9101461072d578063ab58fb8e1461074d578063b58131b01461076d578063b9a6196114610782578063bc197c8114610797578063c006b57f146107c3578063c01f9e37146107d6578063c28bc2fa146107f6578063c59057e414610816578063d33219b414610836578063dd4e2ba51461084b578063deaaa7cc14610891578063ea0217cf146108b3578063eb9019d4146108d3578063ece40cc1146108f3578063f23a6e6114610913578063f8ce560a1461093f578063fc0c546a1461096057600080fd5b3661026b5730610256610994565b6001600160a01b03161461026957600080fd5b005b600080fd5b34801561027c57600080fd5b5061029061028b3660046138c8565b6109a3565b60405190151581526020015b60405180910390f35b3480156102b157600080fd5b506102ba6109b4565b60405190815260200161029c565b3480156102d457600080fd5b506102ba6102e3366004613abd565b6109bf565b3480156102f457600080fd5b506102fd610aa5565b60405161029c9190613d9f565b34801561031657600080fd5b50476102ba565b34801561032957600080fd5b50610348610338366004613524565b630a85bd0160e11b949350505050565b6040516001600160e01b0319909116815260200161029c565b34801561036d57600080fd5b506102ba61037c3660046136aa565b610b37565b61026961038f36600461397c565b610f1c565b6102ba6103a23660046136aa565b610fdc565b3480156103b357600080fd5b506102ba6103c236600461397c565b6111c6565b3480156103d357600080fd5b506102ba60008051602061425e83398151915281565b3480156103f557600080fd5b506102ba6111fd565b34801561040a57600080fd5b506102ba610419366004613b63565b611208565b34801561042a57600080fd5b5061043e61043936600461397c565b61126c565b60405161029c9190613d77565b34801561045757600080fd5b50610290610466366004613995565b60008281526007602090815260408083206001600160a01b038516845260030190915290205460ff1692915050565b3480156104a157600080fd5b506104cb6104b036600461397c565b6000908152600f60205260409020546001600160a01b031690565b60405161029c9190613cd2565b3480156104e457600080fd5b50600b546104cb906001600160a01b031681565b34801561050457600080fd5b5061053261051336600461397c565b6000908152600760205260409020805460018201546002909201549092565b6040805193845260208401929092529082015260600161029c565b34801561055957600080fd5b506040805180820190915260018152603160f81b60208201526102fd565b34801561058357600080fd5b506102ba6105923660046139e7565b611277565b3480156105a357600080fd5b506102696105b23660046139c5565b6112a0565b3480156105c357600080fd5b506102ba6105d2366004613a54565b6113d0565b3480156105e357600080fd5b50600d546104cb906001600160a01b031681565b34801561060357600080fd5b506102696106123660046137d9565b61141a565b34801561062357600080fd5b506102ba61063236600461397c565b6000908152600f602052604090206001015490565b34801561065357600080fd5b5061026961066236600461397c565b6114f6565b34801561067357600080fd5b506102ba610682366004613a13565b611585565b34801561069357600080fd5b506102ba6106a2366004613739565b6115d7565b3480156106b357600080fd5b50600c546104cb906001600160a01b031681565b6102696106d536600461344b565b6116c1565b3480156106e657600080fd5b506102ba6106f5366004613652565b611752565b6102ba6107083660046139e7565b611769565b34801561071957600080fd5b50600a546104cb906001600160a01b031681565b34801561073957600080fd5b5061026961074836600461395f565b61183d565b34801561075957600080fd5b506102ba61076836600461397c565b6118c9565b34801561077957600080fd5b506102ba6118f5565b34801561078e57600080fd5b50610269611900565b3480156107a357600080fd5b506103486107b2366004613477565b63bc197c8160e01b95945050505050565b6102ba6107d13660046139e7565b61196a565b3480156107e257600080fd5b506102ba6107f136600461397c565b611b1a565b34801561080257600080fd5b506102696108113660046135f7565b611b49565b34801561082257600080fd5b506102ba6108313660046136aa565b611c15565b34801561084257600080fd5b506104cb611c4f565b34801561085757600080fd5b506040805180820190915260208082527f737570706f72743d627261766f2671756f72756d3d666f722c6162737461696e908201526102fd565b34801561089d57600080fd5b506102ba60008051602061423e83398151915281565b3480156108bf57600080fd5b506102696108ce36600461397c565b611c5e565b3480156108df57600080fd5b506102ba6108ee36600461344b565b611cea565b3480156108ff57600080fd5b5061026961090e36600461397c565b611d0b565b34801561091f57600080fd5b5061034861092e36600461358f565b63f23a6e6160e01b95945050505050565b34801561094b57600080fd5b506102ba61095a36600461397c565b50600390565b34801561096c57600080fd5b506104cb7f000000000000000000000000000000000000000000000000000000000000000081565b600061099e611c4f565b905090565b60006109ae82611d97565b92915050565b600061099e60055490565b600080610a51610a4960008051602061425e8339815191528c8c8c8c6040516109e9929190613ca6565b60405180910390208b80519060200120604051602001610a2e959493929190948552602085019390935260ff9190911660408401526060830152608082015260a00190565b60405160208183030381529060405280519060200120611dbc565b868686611e0a565b9050610a978a828b8b8b8080601f0160208091040260200160405190810160405280939291908181526020018383808284376000920191909152508d9250611e28915050565b9a9950505050505050505050565b606060008054610ab49061417a565b80601f0160208091040260200160405190810160405280929190818152602001828054610ae09061417a565b8015610b2d5780601f10610b0257610100808354040283529160200191610b2d565b820191906000526020600020905b815481529060010190602001808311610b1057829003601f168201915b5050505050905090565b600080610b4686868686611c15565b90506004610b538261126c565b6007811115610b6457610b646141e6565b14610bc05760405162461bcd60e51b815260206004820152602160248201527f476f7665726e6f723a2070726f706f73616c206e6f74207375636365737366756044820152601b60fa1b60648201526084015b60405180910390fd5b60085460408051630d48571f60e31b815290516000926001600160a01b031691636a42b8f8916004808301926020929190829003018186803b158015610c0557600080fd5b505afa158015610c19573d6000803e3d6000fd5b505050506040513d601f19601f82011682018060405250810190610c3d91906138af565b610c4790426140d5565b9050610c69610c5582611f2a565b600084815260096020526040902090611f96565b60005b8751811015610ed85760085488516001600160a01b039091169063f2b06537908a9084908110610c9e57610c9e6141fc565b6020026020010151898481518110610cb857610cb86141fc565b6020026020010151898581518110610cd257610cd26141fc565b602002602001015186604051602001610cee9493929190613ce6565b604051602081830303815290604052805190602001206040518263ffffffff1660e01b8152600401610d2291815260200190565b60206040518083038186803b158015610d3a57600080fd5b505afa158015610d4e573d6000803e3d6000fd5b505050506040513d601f19601f82011682018060405250810190610d72919061388d565b15610df05760405162461bcd60e51b815260206004820152604260248201527f476f7665726e6f7254696d656c6f636b436f6d706f756e643a206964656e746960448201527f63616c2070726f706f73616c20616374696f6e20616c72656164792071756575606482015261195960f21b608482015260a401610bb7565b60085488516001600160a01b0390911690633a66f901908a9084908110610e1957610e196141fc565b6020026020010151898481518110610e3357610e336141fc565b6020026020010151898581518110610e4d57610e4d6141fc565b6020026020010151866040518563ffffffff1660e01b8152600401610e759493929190613ce6565b602060405180830381600087803b158015610e8f57600080fd5b505af1158015610ea3573d6000803e3d6000fd5b505050506040513d601f19601f82011682018060405250810190610ec791906138af565b50610ed1816141b5565b9050610c6c565b507f9a2e42fd6722813d69113e7d0079d3d940171428df7373df9c7f7617cfda28928282604051610f0a929190613feb565b60405180910390a15095945050505050565b6000610f4033610f2b846111c6565b60405180602001604052806000815250611fb3565b90506000610f4e8280614118565b90506103e8811115610f5f57506103e85b80341015610fd7576040805162461bcd60e51b81526020600482015260248101919091527f51756164726174696320766f74696e673a20596f75206e656564206d6f72652060448201527f657468657220746f20636f76657220796f757220766f7465207765696768742e6064820152608401610bb7565b505050565b6000610fe66118f5565b600a546040516370a0823160e01b81526001600160a01b03909116906370a0823190611016903390600401613cd2565b60206040518083038186803b15801561102e57600080fd5b505afa158015611042573d6000803e3d6000fd5b505050506040513d601f19601f8201168201806040525081019061106691906138af565b10156110845760405162461bcd60e51b8152600401610bb790613eab565b600061109286868686611c15565b905061109e34476140d5565b6000828152600f6020526040902060010154106111195760405162461bcd60e51b815260206004820152603360248201527f476f7665726e6f723a2062756467657420726571756573746564206578636565604482015272323990333ab732399030bb30b4b630b136329760691b6064820152608401610bb7565b600d54600b54604051633e37ce4760e01b8152600481018490526001600160a01b039182166024820152600160448201526000929190911690633e37ce4790606401602060405180830381600087803b15801561117557600080fd5b505af1158015611189573d6000803e3d6000fd5b505050506040513d601f19601f820116820180604052508101906111ad919061342e565b90506111bc8288888888612058565b5095945050505050565b60008181526001602090815260408083208151928301909152546001600160401b0316908190525b6001600160401b031692915050565b600061099e60045490565b6040805160008051602061423e833981519152602082015290810186905260ff85166060820152600090819061124490610a4990608001610a2e565b9050611261878288604051806020016040528060008152506121e6565b979650505050505050565b60006109ae82612212565b600080339050611298848285604051806020016040528060008152506121e6565b949350505050565b6000828152600f60205260409020546001600160a01b0316331461132c5760405162461bcd60e51b815260206004820152603f60248201527f476f7665726e6f723a206f6e6c79207468652070726f706f7365722063616e2060448201527f7365742074686520627564676574206f66207468652070726f706f73616c2e006064820152608401610bb7565b60006113378361126c565b6007811115611348576113486141e6565b146113bb5760405162461bcd60e51b815260206004820152603e60248201527f476f7665726e6f723a2063616e6e6f74206368616e6765206275646765742e2060448201527f50726f706f73616c20766f746520616c726561647920737461727465642e00006064820152608401610bb7565b6000918252600f602052604090912060010155565b60008033905061126187828888888080601f0160208091040260200160405190810160405280939291908181526020018383808284376000920191909152508a9250611e28915050565b6114226118f5565b600a546040516370a0823160e01b81526001600160a01b03909116906370a0823190611452903390600401613cd2565b60206040518083038186803b15801561146a57600080fd5b505afa15801561147e573d6000803e3d6000fd5b505050506040513d601f19601f820116820180604052508101906114a291906138af565b10156114c05760405162461bcd60e51b8152600401610bb790613eab565b6114cc858585856115d7565b5060006114e28686868680519060200120611c15565b90506114ee81836112a0565b505050505050565b6114fe610994565b6001600160a01b0316336001600160a01b03161461152e5760405162461bcd60e51b8152600401610bb790613db2565b30611537610994565b6001600160a01b0316146115795760008036604051611557929190613ca6565b604051809103902090505b8061156d6002612302565b1461157757611562565b505b61158281612385565b50565b6000803390506115cd86828787878080601f0160208091040260200160405190810160405280939291908181526020018383808284376000920191909152506121e692505050565b9695505050505050565b60006115e16118f5565b600a546040516370a0823160e01b81526001600160a01b03909116906370a0823190611611903390600401613cd2565b60206040518083038186803b15801561162957600080fd5b505afa15801561163d573d6000803e3d6000fd5b505050506040513d601f19601f8201168201806040525081019061166191906138af565b101561167f5760405162461bcd60e51b8152600401610bb790613eab565b60006116948686868680519060200120611c15565b6000818152600f6020526040902080546001600160a01b03191633178155909150611261878787876123c5565b600c546001600160a01b03163314806116e45750600d546001600160a01b031633145b61171c5760405162461bcd60e51b81526020600482015260096024820152682737ba1037bbb732b960b91b6044820152606401610bb7565b6040516001600160a01b0383169082156108fc029083906000818181858888f19350505050158015610fd7573d6000803e3d6000fd5b600061175f848484611fb3565b90505b9392505050565b600a546040516370a0823160e01b81526000916001916001600160a01b03909116906370a082319061179f903390600401613cd2565b60206040518083038186803b1580156117b757600080fd5b505afa1580156117cb573d6000803e3d6000fd5b505050506040513d601f19601f820116820180604052508101906117ef91906138af565b101561180d5760405162461bcd60e51b8152600401610bb790613e25565b60003390506112988482856040518060200160405280600081525060405180602001604052806000815250612618565b611845610994565b6001600160a01b0316336001600160a01b0316146118755760405162461bcd60e51b8152600401610bb790613db2565b3061187e610994565b6001600160a01b0316146118c0576000803660405161189e929190613ca6565b604051809103902090505b806118b46002612302565b146118be576118a9565b505b611582816126e3565b60008181526009602090815260408083208151928301909152546001600160401b0316908190526111ee565b600061099e60065490565b600860009054906101000a90046001600160a01b03166001600160a01b0316630e18b6816040518163ffffffff1660e01b8152600401600060405180830381600087803b15801561195057600080fd5b505af1158015611964573d6000803e3d6000fd5b50505050565b600a546040516370a0823160e01b81526000916001916001600160a01b03909116906370a08231906119a0903390600401613cd2565b60206040518083038186803b1580156119b857600080fd5b505afa1580156119cc573d6000803e3d6000fd5b505050506040513d601f19601f820116820180604052508101906119f091906138af565b1015611a0e5760405162461bcd60e51b8152600401610bb790613e25565b6000611a1d33610f2b866111c6565b90506000611a2b8280614118565b90506000662386f26fc100006001841415611a495760009150611a56565b611a538184614118565b91505b81341015611ade5760405162461bcd60e51b815260206004820152604960248201527f596f75206e656564206d6f726520657468657220746f20766f7465207769746860448201527f20616c6c204e4654733a20636f7374203d20286e566f746573295e32202a20306064820152681718189032ba3432b960b91b608482015260a401610bb7565b6000339050611b0e888289604051806020016040528060008152506040518060200160405280600081525061274c565b98975050505050505050565b60008181526001602081815260408084208151928301909152909101546001600160401b0316908190526111ee565b611b51610994565b6001600160a01b0316336001600160a01b031614611b815760405162461bcd60e51b8152600401610bb790613db2565b30611b8a610994565b6001600160a01b031614611bcc5760008036604051611baa929190613ca6565b604051809103902090505b80611bc06002612302565b14611bca57611bb5565b505b611c0e8483838080601f0160208091040260200160405190810160405280939291908181526020018383808284376000920191909152508892506127ab915050565b5050505050565b600084848484604051602001611c2e9493929190613d2c565b60408051601f19818403018152919052805160209091012095945050505050565b6008546001600160a01b031690565b611c66610994565b6001600160a01b0316336001600160a01b031614611c965760405162461bcd60e51b8152600401610bb790613db2565b30611c9f610994565b6001600160a01b031614611ce15760008036604051611cbf929190613ca6565b604051809103902090505b80611cd56002612302565b14611cdf57611cca565b505b611582816127d1565b60006117628383611d0660408051602081019091526000815290565b611fb3565b611d13610994565b6001600160a01b0316336001600160a01b031614611d435760405162461bcd60e51b8152600401610bb790613db2565b30611d4c610994565b6001600160a01b031614611d8e5760008036604051611d6c929190613ca6565b604051809103902090505b80611d826002612302565b14611d8c57611d77565b505b61158281612871565b60006001600160e01b03198216636e665ced60e01b14806109ae57506109ae826128b1565b60006109ae611dc961291c565b8360405161190160f01b6020820152602281018390526042810182905260009060620160405160208183030381529060405280519060200120905092915050565b6000806000611e1b87878787612a43565b915091506111bc81612b26565b6000858152600160208190526040822090611e428861126c565b6007811115611e5357611e536141e6565b14611e705760405162461bcd60e51b8152600401610bb790613e68565b604080516020810190915281546001600160401b031690819052600090611e9990889086611fb3565b9050611ea88888888488612cdc565b8351611ee857866001600160a01b03166000805160206142c783398151915289888489604051611edb9493929190613ff9565b60405180910390a2611261565b866001600160a01b03166000805160206142a78339815191528988848989604051611f17959493929190614021565b60405180910390a2979650505050505050565b60006001600160401b03821115611f925760405162461bcd60e51b815260206004820152602660248201527f53616665436173743a2076616c756520646f65736e27742066697420696e203660448201526534206269747360d01b6064820152608401610bb7565b5090565b81546001600160401b0319166001600160401b0391909116179055565b604051630748d63560e31b81526001600160a01b038481166004830152602482018490526000917f000000000000000000000000000000000000000000000000000000000000000090911690633a46b1a89060440160206040518083038186803b15801561202057600080fd5b505afa158015612034573d6000803e3d6000fd5b505050506040513d601f19601f8201168201806040525081019061175f91906138af565b6000612063866118c9565b9050600081116120cf5760405162461bcd60e51b815260206004820152603160248201527f476f7665726e6f7254696d656c6f636b436f6d706f756e643a2070726f706f73604482015270185b081b9bdd081e595d081c5d595d5959607a1b6064820152608401610bb7565b6008546120e5906001600160a01b031634612e5b565b60005b85518110156121dd5760085486516001600160a01b0390911690630825f38f9088908490811061211a5761211a6141fc565b6020026020010151878481518110612134576121346141fc565b602002602001015187858151811061214e5761214e6141fc565b6020026020010151866040518563ffffffff1660e01b81526004016121769493929190613ce6565b600060405180830381600087803b15801561219057600080fd5b505af11580156121a4573d6000803e3d6000fd5b505050506040513d6000823e601f3d908101601f191682016040526121cc91908101906138f2565b506121d6816141b5565b90506120e8565b50505050505050565b60006122098585858561220460408051602081019091526000815290565b611e28565b95945050505050565b60008061221e83612f71565b90506004816007811115612234576122346141e6565b1461223f5792915050565b600061224a846118c9565b905080612258575092915050565b600860009054906101000a90046001600160a01b03166001600160a01b031663c1a287e26040518163ffffffff1660e01b815260040160206040518083038186803b1580156122a657600080fd5b505afa1580156122ba573d6000803e3d6000fd5b505050506040513d601f19601f820116820180604052508101906122de91906138af565b6122e890826140d5565b42106122f8575060069392505050565b5060059392505050565b60006123218254600f81810b810b600160801b909204810b900b131590565b1561233f57604051631ed9509560e11b815260040160405180910390fd5b508054600f90810b80820b820b600090815260018085016020526040822080549290558454920190920b6001600160801b03166001600160801b03199091161790915590565b7fc565b045403dc03c2eea82b81a0465edad9e2e7fc4d97e11421c209da93d7a93600454826040516123b8929190613feb565b60405180910390a1600455565b60006123cf6118f5565b6123de336108ee600143614137565b10156123fc5760405162461bcd60e51b8152600401610bb790613eab565b60006124118686868680519060200120611c15565b905084518651146124345760405162461bcd60e51b8152600401610bb790613de4565b83518651146124555760405162461bcd60e51b8152600401610bb790613de4565b60008651116124a15760405162461bcd60e51b815260206004820152601860248201527711dbdd995c9b9bdc8e88195b5c1d1e481c1c9bdc1bdcd85b60421b6044820152606401610bb7565b600081815260016020908152604091829020825191820190925281546001600160401b031690819052156125215760405162461bcd60e51b815260206004820152602160248201527f476f7665726e6f723a2070726f706f73616c20616c72656164792065786973746044820152607360f81b6064820152608401610bb7565b600061253361252e6111fd565b611f2a565b61253c43611f2a565b61254691906140ed565b9050600061255561252e6109b4565b61255f90836140ed565b905061256b8383611f96565b6125786001840182611f96565b7f7d84a6263ae0d98d3329bd7b46bb4e8d6f98cd35a7adb45c274c8b7fd5ebd5e084338b8b8d516001600160401b038111156125b6576125b6614212565b6040519080825280602002602001820160405280156125e957816020015b60608152602001906001900390816125d45790505b508c88888e60405161260399989796959493929190613efc565b60405180910390a15091979650505050505050565b600060016126258761126c565b6007811115612636576126366141e6565b146126535760405162461bcd60e51b8152600401610bb790613e68565b60016126628787878487612cdc565b82516126a257856001600160a01b03166000805160206142c7833981519152888784886040516126959493929190613ff9565b60405180910390a26115cd565b856001600160a01b03166000805160206142a783398151915288878488886040516126d1959493929190614021565b60405180910390a29695505050505050565b600854604080516001600160a01b03928316815291831660208301527f08f74ea46ef7894f65eabfb5e6e695de773a000b47c529ab559178069b226401910160405180910390a1600880546001600160a01b0319166001600160a01b0392909216919091179055565b600060016127598761126c565b600781111561276a5761276a6141e6565b146127875760405162461bcd60e51b8152600401610bb790613e68565b600061279c86612796896111c6565b85611fb3565b90506126628787878487612cdc565b606061175f84848460405180606001604052806029815260200161427e6029913961307d565b600081116128315760405162461bcd60e51b815260206004820152602760248201527f476f7665726e6f7253657474696e67733a20766f74696e6720706572696f6420604482015266746f6f206c6f7760c81b6064820152608401610bb7565b7f7e3f7f0708a84de9203036abaa450dccc85ad5ff52f78c170f3edb55cf5e882860055482604051612864929190613feb565b60405180910390a1600555565b7fccb45da8d5717e6c4544694297c4ba5cf151d455c9bb0ed4fc7a38411bc05461600654826040516128a4929190613feb565b60405180910390a1600655565b60006001600160e01b0319821663bf26d89760e01b14806128e257506001600160e01b031982166379dd796f60e01b145b806128fd57506001600160e01b03198216630271189760e51b145b806109ae57506301ffc9a760e01b6001600160e01b03198316146109ae565b6000306001600160a01b037f00000000000000000000000000000000000000000000000000000000000000001614801561297557507f000000000000000000000000000000000000000000000000000000000000000046145b1561299f57507f000000000000000000000000000000000000000000000000000000000000000090565b50604080517f00000000000000000000000000000000000000000000000000000000000000006020808301919091527f0000000000000000000000000000000000000000000000000000000000000000828401527f000000000000000000000000000000000000000000000000000000000000000060608301524660808301523060a0808401919091528351808403909101815260c0909201909252805191012090565b6000806fa2a8918ca85bafe22016d0b997e4df60600160ff1b03831115612a705750600090506003612b1d565b8460ff16601b14158015612a8857508460ff16601c14155b15612a995750600090506004612b1d565b6040805160008082526020820180845289905260ff881692820192909252606081018690526080810185905260019060a0016020604051602081039080840390855afa158015612aed573d6000803e3d6000fd5b5050604051601f1901519150506001600160a01b038116612b1657600060019250925050612b1d565b9150600090505b94509492505050565b6000816004811115612b3a57612b3a6141e6565b1415612b435750565b6001816004811115612b5757612b576141e6565b1415612ba05760405162461bcd60e51b815260206004820152601860248201527745434453413a20696e76616c6964207369676e617475726560401b6044820152606401610bb7565b6002816004811115612bb457612bb46141e6565b1415612c025760405162461bcd60e51b815260206004820152601f60248201527f45434453413a20696e76616c6964207369676e6174757265206c656e677468006044820152606401610bb7565b6003816004811115612c1657612c166141e6565b1415612c6f5760405162461bcd60e51b815260206004820152602260248201527f45434453413a20696e76616c6964207369676e6174757265202773272076616c604482015261756560f01b6064820152608401610bb7565b6004816004811115612c8357612c836141e6565b14156115825760405162461bcd60e51b815260206004820152602260248201527f45434453413a20696e76616c6964207369676e6174757265202776272076616c604482015261756560f01b6064820152608401610bb7565b60008581526007602090815260408083206001600160a01b0388168452600381019092529091205460ff1615612d645760405162461bcd60e51b815260206004820152602760248201527f476f7665726e6f72566f74696e6753696d706c653a20766f746520616c726561604482015266191e4818d85cdd60ca1b6064820152608401610bb7565b6001600160a01b03851660009081526003820160205260408120805460ff1916600117905560ff168460ff161415612db55782816000016000828254612daa91906140d5565b909155506114ee9050565b60ff841660011415612dd55782816001016000828254612daa91906140d5565b60ff841660021415612df55782816002016000828254612daa91906140d5565b60405162461bcd60e51b815260206004820152603560248201527f476f7665726e6f72566f74696e6753696d706c653a20696e76616c69642076616044820152746c756520666f7220656e756d20566f74655479706560581b6064820152608401610bb7565b80471015612eab5760405162461bcd60e51b815260206004820152601d60248201527f416464726573733a20696e73756666696369656e742062616c616e63650000006044820152606401610bb7565b6000826001600160a01b03168260405160006040518083038185875af1925050503d8060008114612ef8576040519150601f19603f3d011682016040523d82523d6000602084013e612efd565b606091505b5050905080610fd75760405162461bcd60e51b815260206004820152603a60248201527f416464726573733a20756e61626c6520746f2073656e642076616c75652c20726044820152791958da5c1a595b9d081b585e481a185d99481c995d995c9d195960321b6064820152608401610bb7565b6000818152600160205260408120600281015460ff1615612f955750600792915050565b6002810154610100900460ff1615612fb05750600292915050565b6000612fbb846111c6565b90508061300a5760405162461bcd60e51b815260206004820152601d60248201527f476f7665726e6f723a20756e6b6e6f776e2070726f706f73616c2069640000006044820152606401610bb7565b43811061301b575060009392505050565b600061302685611b1a565b905043811061303a57506001949350505050565b613043856131a3565b8015613062575060008581526007602052604090208054600190910154115b1561307257506004949350505050565b506003949350505050565b6060824710156130de5760405162461bcd60e51b815260206004820152602660248201527f416464726573733a20696e73756666696369656e742062616c616e636520666f6044820152651c8818d85b1b60d21b6064820152608401610bb7565b6001600160a01b0385163b6131355760405162461bcd60e51b815260206004820152601d60248201527f416464726573733a2063616c6c20746f206e6f6e2d636f6e74726163740000006044820152606401610bb7565b600080866001600160a01b031685876040516131519190613cb6565b60006040518083038185875af1925050503d806000811461318e576040519150601f19603f3d011682016040523d82523d6000602084013e613193565b606091505b50915091506112618282866131da565b6000818152600760205260408120600281015460018201546131c591906140d5565b6131d161095a856111c6565b11159392505050565b606083156131e9575081611762565b8251156131f95782518084602001fd5b8160405162461bcd60e51b8152600401610bb79190613d9f565b600082601f83011261322457600080fd5b813560206132396132348361408b565b61405b565b80838252828201915082860187848660051b890101111561325957600080fd5b60005b8581101561328157813561326f81614228565b8452928401929084019060010161325c565b5090979650505050505050565b600082601f83011261329f57600080fd5b813560206132af6132348361408b565b80838252828201915082860187848660051b89010111156132cf57600080fd5b6000805b868110156133115782356001600160401b038111156132f0578283fd5b6132fe8b88838d01016133c7565b86525093850193918501916001016132d3565b509198975050505050505050565b600082601f83011261333057600080fd5b813560206133406132348361408b565b80838252828201915082860187848660051b890101111561336057600080fd5b60005b8581101561328157813584529284019290840190600101613363565b60008083601f84011261339157600080fd5b5081356001600160401b038111156133a857600080fd5b6020830191508360208285010111156133c057600080fd5b9250929050565b600082601f8301126133d857600080fd5b81356133e6613234826140ae565b8181528460208386010111156133fb57600080fd5b816020850160208301376000918101602001919091529392505050565b803560ff8116811461342957600080fd5b919050565b60006020828403121561344057600080fd5b815161176281614228565b6000806040838503121561345e57600080fd5b823561346981614228565b946020939093013593505050565b600080600080600060a0868803121561348f57600080fd5b853561349a81614228565b945060208601356134aa81614228565b935060408601356001600160401b03808211156134c657600080fd5b6134d289838a0161331f565b945060608801359150808211156134e857600080fd5b6134f489838a0161331f565b9350608088013591508082111561350a57600080fd5b50613517888289016133c7565b9150509295509295909350565b6000806000806080858703121561353a57600080fd5b843561354581614228565b9350602085013561355581614228565b92506040850135915060608501356001600160401b0381111561357757600080fd5b613583878288016133c7565b91505092959194509250565b600080600080600060a086880312156135a757600080fd5b85356135b281614228565b945060208601356135c281614228565b9350604086013592506060860135915060808601356001600160401b038111156135eb57600080fd5b613517888289016133c7565b6000806000806060858703121561360d57600080fd5b843561361881614228565b93506020850135925060408501356001600160401b0381111561363a57600080fd5b6136468782880161337f565b95989497509550505050565b60008060006060848603121561366757600080fd5b833561367281614228565b92506020840135915060408401356001600160401b0381111561369457600080fd5b6136a0868287016133c7565b9150509250925092565b600080600080608085870312156136c057600080fd5b84356001600160401b03808211156136d757600080fd5b6136e388838901613213565b955060208701359150808211156136f957600080fd5b6137058883890161331f565b9450604087013591508082111561371b57600080fd5b506137288782880161328e565b949793965093946060013593505050565b6000806000806080858703121561374f57600080fd5b84356001600160401b038082111561376657600080fd5b61377288838901613213565b9550602087013591508082111561378857600080fd5b6137948883890161331f565b945060408701359150808211156137aa57600080fd5b6137b68883890161328e565b935060608701359150808211156137cc57600080fd5b50613583878288016133c7565b600080600080600060a086880312156137f157600080fd5b85356001600160401b038082111561380857600080fd5b61381489838a01613213565b9650602088013591508082111561382a57600080fd5b61383689838a0161331f565b9550604088013591508082111561384c57600080fd5b61385889838a0161328e565b9450606088013591508082111561386e57600080fd5b5061387b888289016133c7565b95989497509295608001359392505050565b60006020828403121561389f57600080fd5b8151801515811461176257600080fd5b6000602082840312156138c157600080fd5b5051919050565b6000602082840312156138da57600080fd5b81356001600160e01b03198116811461176257600080fd5b60006020828403121561390457600080fd5b81516001600160401b0381111561391a57600080fd5b8201601f8101841361392b57600080fd5b8051613939613234826140ae565b81815285602083850101111561394e57600080fd5b61220982602083016020860161414e565b60006020828403121561397157600080fd5b813561176281614228565b60006020828403121561398e57600080fd5b5035919050565b600080604083850312156139a857600080fd5b8235915060208301356139ba81614228565b809150509250929050565b600080604083850312156139d857600080fd5b50508035926020909101359150565b600080604083850312156139fa57600080fd5b82359150613a0a60208401613418565b90509250929050565b60008060008060608587031215613a2957600080fd5b84359350613a3960208601613418565b925060408501356001600160401b0381111561363a57600080fd5b600080600080600060808688031215613a6c57600080fd5b85359450613a7c60208701613418565b935060408601356001600160401b0380821115613a9857600080fd5b613aa489838a0161337f565b9095509350606088013591508082111561350a57600080fd5b60008060008060008060008060e0898b031215613ad957600080fd5b88359750613ae960208a01613418565b965060408901356001600160401b0380821115613b0557600080fd5b613b118c838d0161337f565b909850965060608b0135915080821115613b2a57600080fd5b50613b378b828c016133c7565b945050613b4660808a01613418565b925060a0890135915060c089013590509295985092959890939650565b600080600080600060a08688031215613b7b57600080fd5b85359450613b8b60208701613418565b9350613b9960408701613418565b94979396509394606081013594506080013592915050565b600081518084526020808501945080840160005b83811015613bea5781516001600160a01b031687529582019590820190600101613bc5565b509495945050505050565b600081518084526020808501808196508360051b8101915082860160005b85811015613c3d578284038952613c2b848351613c7a565b98850198935090840190600101613c13565b5091979650505050505050565b600081518084526020808501945080840160005b83811015613bea57815187529582019590820190600101613c5e565b60008151808452613c9281602086016020860161414e565b601f01601f19169290920160200192915050565b8183823760009101908152919050565b60008251613cc881846020870161414e565b9190910192915050565b6001600160a01b0391909116815260200190565b60018060a01b038516815283602082015260a06040820152600060a082015260c060608201526000613d1b60c0830185613c7a565b905082608083015295945050505050565b608081526000613d3f6080830187613bb1565b8281036020840152613d518187613c4a565b90508281036040840152613d658186613bf5565b91505082606083015295945050505050565b6020810160088310613d9957634e487b7160e01b600052602160045260246000fd5b91905290565b6020815260006117626020830184613c7a565b602080825260189082015277476f7665726e6f723a206f6e6c79476f7665726e616e636560401b604082015260600190565b60208082526021908201527f476f7665726e6f723a20696e76616c69642070726f706f73616c206c656e67746040820152600d60fb1b606082015260800190565b60208082526023908201527f596f75206d757374206265206120746f6b656e20686f6c64657220746f20766f6040820152623a329760e91b606082015260800190565b60208082526023908201527f476f7665726e6f723a20766f7465206e6f742063757272656e746c792061637460408201526269766560e81b606082015260800190565b60208082526031908201527f476f7665726e6f723a2070726f706f73657220766f7465732062656c6f7720706040820152701c9bdc1bdcd85b081d1a1c995cda1bdb19607a1b606082015260800190565b60006101208b8352602060018060a01b038c1681850152816040850152613f258285018c613bb1565b91508382036060850152613f39828b613c4a565b915083820360808501528189518084528284019150828160051b850101838c0160005b83811015613f8a57601f19878403018552613f78838351613c7a565b94860194925090850190600101613f5c565b505086810360a0880152613f9e818c613bf5565b945050505050613fb960c08401876001600160401b03169052565b6001600160401b03851660e0840152828103610100840152613fdb8185613c7a565b9c9b505050505050505050505050565b918252602082015260400190565b84815260ff841660208201528260408201526080606082015260006115cd6080830184613c7a565b85815260ff8516602082015283604082015260a06060820152600061404960a0830185613c7a565b8281036080840152611b0e8185613c7a565b604051601f8201601f191681016001600160401b038111828210171561408357614083614212565b604052919050565b60006001600160401b038211156140a4576140a4614212565b5060051b60200190565b60006001600160401b038211156140c7576140c7614212565b50601f01601f191660200190565b600082198211156140e8576140e86141d0565b500190565b60006001600160401b0382811684821680830382111561410f5761410f6141d0565b01949350505050565b6000816000190483118215151615614132576141326141d0565b500290565b600082821015614149576141496141d0565b500390565b60005b83811015614169578181015183820152602001614151565b838111156119645750506000910152565b600181811c9082168061418e57607f821691505b602082108114156141af57634e487b7160e01b600052602260045260246000fd5b50919050565b60006000198214156141c9576141c96141d0565b5060010190565b634e487b7160e01b600052601160045260246000fd5b634e487b7160e01b600052602160045260246000fd5b634e487b7160e01b600052603260045260246000fd5b634e487b7160e01b600052604160045260246000fd5b6001600160a01b038116811461158257600080fdfe150214d74d59b7d1e90c73fc22ef3d991dd0a76b046543d4d80ab92d2a50328fb3b3f3b703cd84ce352197dcff232b1b5d3cfb2025ce47cf04742d0651f1af88416464726573733a206c6f772d6c6576656c2063616c6c20776974682076616c7565206661696c6564e2babfbac5889a709b63bb7f598b324e08bc5a4fb9ec647fb3cbc9ec07eb8712b8e138887d0aa13bab447e82de9d5c1777041ecd21ca36ba824ff1e6c07ddda4a164736f6c6343000806000a",
  "linkReferences": {},
  "deployedLinkReferences": {}
}