{
  "_format": "hh-sol-artifact-1",
  "contractName": "MyNftToken",
  "sourceName": "contracts/MyNftToken.sol",
  "abi": [
    {
      "inputs": [],
      "stateMutability": "nonpayable",
      "type": "constructor"
    },
    {
      "anonymous": false,
      "inputs": [
        {
          "indexed": true,
          "internalType": "address",
          "name": "owner",
          "type": "address"
        },
        {
          "indexed": true,
          "internalType": "address",
          "name": "approved",
          "type": "address"
        },
        {
          "indexed": true,
          "internalType": "uint256",
          "name": "tokenId",
          "type": "uint256"
        }
      ],
      "name": "Approval",
      "type": "event"
    },
    {
      "anonymous": false,
      "inputs": [
        {
          "indexed": true,
          "internalType": "address",
          "name": "owner",
          "type": "address"
        },
        {
          "indexed": true,
          "internalType": "address",
          "name": "operator",
          "type": "address"
        },
        {
          "indexed": false,
          "internalType": "bool",
          "name": "approved",
          "type": "bool"
        }
      ],
      "name": "ApprovalForAll",
      "type": "event"
    },
    {
      "anonymous": false,
      "inputs": [
        {
          "indexed": true,
          "internalType": "address",
          "name": "delegator",
          "type": "address"
        },
        {
          "indexed": true,
          "internalType": "address",
          "name": "fromDelegate",
          "type": "address"
        },
        {
          "indexed": true,
          "internalType": "address",
          "name": "toDelegate",
          "type": "address"
        }
      ],
      "name": "DelegateChanged",
      "type": "event"
    },
    {
      "anonymous": false,
      "inputs": [
        {
          "indexed": true,
          "internalType": "address",
          "name": "delegate",
          "type": "address"
        },
        {
          "indexed": false,
          "internalType": "uint256",
          "name": "previousBalance",
          "type": "uint256"
        },
        {
          "indexed": false,
          "internalType": "uint256",
          "name": "newBalance",
          "type": "uint256"
        }
      ],
      "name": "DelegateVotesChanged",
      "type": "event"
    },
    {
      "anonymous": false,
      "inputs": [
        {
          "indexed": true,
          "internalType": "address",
          "name": "previousOwner",
          "type": "address"
        },
        {
          "indexed": true,
          "internalType": "address",
          "name": "newOwner",
          "type": "address"
        }
      ],
      "name": "OwnershipTransferred",
      "type": "event"
    },
    {
      "anonymous": false,
      "inputs": [
        {
          "indexed": true,
          "internalType": "address",
          "name": "from",
          "type": "address"
        },
        {
          "indexed": true,
          "internalType": "address",
          "name": "to",
          "type": "address"
        },
        {
          "indexed": true,
          "internalType": "uint256",
          "name": "tokenId",
          "type": "uint256"
        }
      ],
      "name": "Transfer",
      "type": "event"
    },
    {
      "inputs": [],
      "name": "DOMAIN_SEPARATOR",
      "outputs": [
        {
          "internalType": "bytes32",
          "name": "",
          "type": "bytes32"
        }
      ],
      "stateMutability": "view",
      "type": "function"
    },
    {
      "inputs": [],
      "name": "MAX_PER_MINT",
      "outputs": [
        {
          "internalType": "uint256",
          "name": "",
          "type": "uint256"
        }
      ],
      "stateMutability": "view",
      "type": "function"
    },
    {
      "inputs": [],
      "name": "MAX_SUPPLY",
      "outputs": [
        {
          "internalType": "uint256",
          "name": "",
          "type": "uint256"
        }
      ],
      "stateMutability": "view",
      "type": "function"
    },
    {
      "inputs": [],
      "name": "PRICE",
      "outputs": [
        {
          "internalType": "uint256",
          "name": "",
          "type": "uint256"
        }
      ],
      "stateMutability": "view",
      "type": "function"
    },
    {
      "inputs": [
        {
          "internalType": "address",
          "name": "to",
          "type": "address"
        },
        {
          "internalType": "uint256",
          "name": "tokenId",
          "type": "uint256"
        }
      ],
      "name": "approve",
      "outputs": [],
      "stateMutability": "nonpayable",
      "type": "function"
    },
    {
      "inputs": [
        {
          "internalType": "address",
          "name": "owner",
          "type": "address"
        }
      ],
      "name": "balanceOf",
      "outputs": [
        {
          "internalType": "uint256",
          "name": "",
          "type": "uint256"
        }
      ],
      "stateMutability": "view",
      "type": "function"
    },
    {
      "inputs": [],
      "name": "baseTokenURI",
      "outputs": [
        {
          "internalType": "string",
          "name": "",
          "type": "string"
        }
      ],
      "stateMutability": "view",
      "type": "function"
    },
    {
      "inputs": [
        {
          "internalType": "address",
          "name": "delegatee",
          "type": "address"
        }
      ],
      "name": "delegate",
      "outputs": [],
      "stateMutability": "nonpayable",
      "type": "function"
    },
    {
      "inputs": [
        {
          "internalType": "address",
          "name": "delegatee",
          "type": "address"
        },
        {
          "internalType": "uint256",
          "name": "nonce",
          "type": "uint256"
        },
        {
          "internalType": "uint256",
          "name": "expiry",
          "type": "uint256"
        },
        {
          "internalType": "uint8",
          "name": "v",
          "type": "uint8"
        },
        {
          "internalType": "bytes32",
          "name": "r",
          "type": "bytes32"
        },
        {
          "internalType": "bytes32",
          "name": "s",
          "type": "bytes32"
        }
      ],
      "name": "delegateBySig",
      "outputs": [],
      "stateMutability": "nonpayable",
      "type": "function"
    },
    {
      "inputs": [
        {
          "internalType": "address",
          "name": "account",
          "type": "address"
        }
      ],
      "name": "delegates",
      "outputs": [
        {
          "internalType": "address",
          "name": "",
          "type": "address"
        }
      ],
      "stateMutability": "view",
      "type": "function"
    },
    {
      "inputs": [
        {
          "internalType": "uint256",
          "name": "tokenId",
          "type": "uint256"
        }
      ],
      "name": "getApproved",
      "outputs": [
        {
          "internalType": "address",
          "name": "",
          "type": "address"
        }
      ],
      "stateMutability": "view",
      "type": "function"
    },
    {
      "inputs": [
        {
          "internalType": "uint256",
          "name": "blockNumber",
          "type": "uint256"
        }
      ],
      "name": "getPastTotalSupply",
      "outputs": [
        {
          "internalType": "uint256",
          "name": "",
          "type": "uint256"
        }
      ],
      "stateMutability": "view",
      "type": "function"
    },
    {
      "inputs": [
        {
          "internalType": "address",
          "name": "account",
          "type": "address"
        },
        {
          "internalType": "uint256",
          "name": "blockNumber",
          "type": "uint256"
        }
      ],
      "name": "getPastVotes",
      "outputs": [
        {
          "internalType": "uint256",
          "name": "",
          "type": "uint256"
        }
      ],
      "stateMutability": "view",
      "type": "function"
    },
    {
      "inputs": [
        {
          "internalType": "address",
          "name": "account",
          "type": "address"
        }
      ],
      "name": "getVotes",
      "outputs": [
        {
          "internalType": "uint256",
          "name": "",
          "type": "uint256"
        }
      ],
      "stateMutability": "view",
      "type": "function"
    },
    {
      "inputs": [
        {
          "internalType": "address",
          "name": "owner",
          "type": "address"
        },
        {
          "internalType": "address",
          "name": "operator",
          "type": "address"
        }
      ],
      "name": "isApprovedForAll",
      "outputs": [
        {
          "internalType": "bool",
          "name": "",
          "type": "bool"
        }
      ],
      "stateMutability": "view",
      "type": "function"
    },
    {
      "inputs": [],
      "name": "name",
      "outputs": [
        {
          "internalType": "string",
          "name": "",
          "type": "string"
        }
      ],
      "stateMutability": "view",
      "type": "function"
    },
    {
      "inputs": [
        {
          "internalType": "address",
          "name": "owner",
          "type": "address"
        }
      ],
      "name": "nonces",
      "outputs": [
        {
          "internalType": "uint256",
          "name": "",
          "type": "uint256"
        }
      ],
      "stateMutability": "view",
      "type": "function"
    },
    {
      "inputs": [],
      "name": "owner",
      "outputs": [
        {
          "internalType": "address",
          "name": "",
          "type": "address"
        }
      ],
      "stateMutability": "view",
      "type": "function"
    },
    {
      "inputs": [
        {
          "internalType": "uint256",
          "name": "tokenId",
          "type": "uint256"
        }
      ],
      "name": "ownerOf",
      "outputs": [
        {
          "internalType": "address",
          "name": "",
          "type": "address"
        }
      ],
      "stateMutability": "view",
      "type": "function"
    },
    {
      "inputs": [],
      "name": "renounceOwnership",
      "outputs": [],
      "stateMutability": "nonpayable",
      "type": "function"
    },
    {
      "inputs": [
        {
          "internalType": "address",
          "name": "to",
          "type": "address"
        }
      ],
      "name": "safeMint",
      "outputs": [],
      "stateMutability": "payable",
      "type": "function"
    },
    {
      "inputs": [
        {
          "internalType": "address",
          "name": "from",
          "type": "address"
        },
        {
          "internalType": "address",
          "name": "to",
          "type": "address"
        },
        {
          "internalType": "uint256",
          "name": "tokenId",
          "type": "uint256"
        }
      ],
      "name": "safeTransferFrom",
      "outputs": [],
      "stateMutability": "nonpayable",
      "type": "function"
    },
    {
      "inputs": [
        {
          "internalType": "address",
          "name": "from",
          "type": "address"
        },
        {
          "internalType": "address",
          "name": "to",
          "type": "address"
        },
        {
          "internalType": "uint256",
          "name": "tokenId",
          "type": "uint256"
        },
        {
          "internalType": "bytes",
          "name": "data",
          "type": "bytes"
        }
      ],
      "name": "safeTransferFrom",
      "outputs": [],
      "stateMutability": "nonpayable",
      "type": "function"
    },
    {
      "inputs": [
        {
          "internalType": "address",
          "name": "operator",
          "type": "address"
        },
        {
          "internalType": "bool",
          "name": "approved",
          "type": "bool"
        }
      ],
      "name": "setApprovalForAll",
      "outputs": [],
      "stateMutability": "nonpayable",
      "type": "function"
    },
    {
      "inputs": [
        {
          "internalType": "string",
          "name": "_baseTokenURI",
          "type": "string"
        }
      ],
      "name": "setBaseURI",
      "outputs": [],
      "stateMutability": "nonpayable",
      "type": "function"
    },
    {
      "inputs": [
        {
          "internalType": "bytes4",
          "name": "interfaceId",
          "type": "bytes4"
        }
      ],
      "name": "supportsInterface",
      "outputs": [
        {
          "internalType": "bool",
          "name": "",
          "type": "bool"
        }
      ],
      "stateMutability": "view",
      "type": "function"
    },
    {
      "inputs": [],
      "name": "symbol",
      "outputs": [
        {
          "internalType": "string",
          "name": "",
          "type": "string"
        }
      ],
      "stateMutability": "view",
      "type": "function"
    },
    {
      "inputs": [
        {
          "internalType": "uint256",
          "name": "tokenId",
          "type": "uint256"
        }
      ],
      "name": "tokenURI",
      "outputs": [
        {
          "internalType": "string",
          "name": "",
          "type": "string"
        }
      ],
      "stateMutability": "view",
      "type": "function"
    },
    {
      "inputs": [
        {
          "internalType": "address",
          "name": "from",
          "type": "address"
        },
        {
          "internalType": "address",
          "name": "to",
          "type": "address"
        },
        {
          "internalType": "uint256",
          "name": "tokenId",
          "type": "uint256"
        }
      ],
      "name": "transferFrom",
      "outputs": [],
      "stateMutability": "nonpayable",
      "type": "function"
    },
    {
      "inputs": [
        {
          "internalType": "address",
          "name": "newOwner",
          "type": "address"
        }
      ],
      "name": "transferOwnership",
      "outputs": [],
      "stateMutability": "nonpayable",
      "type": "function"
    }
  ],
  "bytecode": "0x6101c0604052605161014081815290620029aa6101603980516200002c91600d9160209091019062000230565b503480156200003a57600080fd5b506040518060400160405280600c81526020016b23b2b732b9b4b9aa37b5b2b760a11b815250604051806040016040528060018152602001603160f81b8152506040518060400160405280600c81526020016b23b2b732b9b4b9aa37b5b2b760a11b8152506040518060400160405280600281526020016111d560f21b8152508160009080519060200190620000d292919062000230565b508051620000e890600190602084019062000230565b50505062000105620000ff620001cb60201b60201c565b620001cf565b815160208084019190912082518383012060e08290526101008190524660a0818152604080517f8b73c3c69bb8fe3d512ecc4cf759cc79239f7b179b0ffacaa9a75d522b39400f81880181905281830187905260608201869052608082019490945230818401528151808203909301835260c00190528051940193909320919290916080523060601b60c0526101205250620001a5925050620002219050565b600c80546001600160a01b0319166001600160a01b039290921691909117905562000313565b3390565b600680546001600160a01b038381166001600160a01b0319831681179093556040519116919082907f8be0079c531659141344cd1fd0a4f28419497f9722a3daafe3b4186f6b6457e090600090a35050565b6006546001600160a01b031690565b8280546200023e90620002d6565b90600052602060002090601f016020900481019282620002625760008555620002ad565b82601f106200027d57805160ff1916838001178555620002ad565b82800160010185558215620002ad579182015b82811115620002ad57825182559160200191906001019062000290565b50620002bb929150620002bf565b5090565b5b80821115620002bb5760008155600101620002c0565b600181811c90821680620002eb57607f821691505b602082108114156200030d57634e487b7160e01b600052602260045260246000fd5b50919050565b60805160a05160c05160601c60e05161010051610120516126446200036660003960006110a1015260006110f0015260006110cb015260006110240152600061104e0152600061107801526126446000f3fe60806040526004361061015d5760003560e01c806301ffc9a71461016257806306fdde0314610197578063081812fc146101b9578063095ea7b3146101f157806309d42b301461021357806323b872dd1461023657806332cb6b0c146102565780633644e5151461026c5780633a46b1a81461028157806340d097c3146102a157806342842e0e146102b457806355f804b3146102d4578063587cde1e146102f45780635c19a95c146103145780636352211e1461033457806370a0823114610354578063715018a6146103745780637ecebe00146103895780638d859f3e146103a95780638da5cb5b146103c45780638e539e8c146103d957806395d89b41146103f95780639ab24eb01461040e578063a22cb4651461042e578063b88d4fde1461044e578063c3cda5201461046e578063c87b56dd1461048e578063d547cfb7146104ae578063e985e9c5146104c3578063f2fde38b146104e3575b600080fd5b34801561016e57600080fd5b5061018261017d366004612288565b610503565b60405190151581526020015b60405180910390f35b3480156101a357600080fd5b506101ac610555565b60405161018e91906123bb565b3480156101c557600080fd5b506101d96101d436600461230a565b6105e7565b6040516001600160a01b03909116815260200161018e565b3480156101fd57600080fd5b5061021161020c3660046121fe565b61060e565b005b34801561021f57600080fd5b50610228600581565b60405190815260200161018e565b34801561024257600080fd5b5061021161025136600461210b565b610729565b34801561026257600080fd5b5061022861025881565b34801561027857600080fd5b5061022861075a565b34801561028d57600080fd5b5061022861029c3660046121fe565b610769565b6102116102af3660046120bd565b610792565b3480156102c057600080fd5b506102116102cf36600461210b565b61081d565b3480156102e057600080fd5b506102116102ef3660046122c2565b610838565b34801561030057600080fd5b506101d961030f3660046120bd565b6108e1565b34801561032057600080fd5b5061021161032f3660046120bd565b6108ff565b34801561034057600080fd5b506101d961034f36600461230a565b61090a565b34801561036057600080fd5b5061022861036f3660046120bd565b61093f565b34801561038057600080fd5b506102116109c5565b34801561039557600080fd5b506102286103a43660046120bd565b6109d9565b3480156103b557600080fd5b5061022866470de4df82000081565b3480156103d057600080fd5b506101d96109f7565b3480156103e557600080fd5b506102286103f436600461230a565b610a06565b34801561040557600080fd5b506101ac610a5f565b34801561041a57600080fd5b506102286104293660046120bd565b610a6e565b34801561043a57600080fd5b506102116104493660046121c2565b610a8f565b34801561045a57600080fd5b50610211610469366004612147565b610a9a565b34801561047a57600080fd5b50610211610489366004612228565b610ad2565b34801561049a57600080fd5b506101ac6104a936600461230a565b610bfa565b3480156104ba57600080fd5b506101ac610c60565b3480156104cf57600080fd5b506101826104de3660046120d8565b610cee565b3480156104ef57600080fd5b506102116104fe3660046120bd565b610d1c565b60006001600160e01b031982166380ac58cd60e01b148061053457506001600160e01b03198216635b5e139f60e01b145b8061054f57506301ffc9a760e01b6001600160e01b03198316145b92915050565b6060600080546105649061250f565b80601f01602080910402602001604051908101604052809291908181526020018280546105909061250f565b80156105dd5780601f106105b2576101008083540402835291602001916105dd565b820191906000526020600020905b8154815290600101906020018083116105c057829003601f168201915b5050505050905090565b60006105f282610d95565b506000908152600460205260409020546001600160a01b031690565b60006106198261090a565b9050806001600160a01b0316836001600160a01b0316141561068c5760405162461bcd60e51b815260206004820152602160248201527f4552433732313a20617070726f76616c20746f2063757272656e74206f776e656044820152603960f91b60648201526084015b60405180910390fd5b336001600160a01b03821614806106a857506106a88133610cee565b61071a5760405162461bcd60e51b815260206004820152603e60248201527f4552433732313a20617070726f76652063616c6c6572206973206e6f7420746f60448201527f6b656e206f776e6572206e6f7220617070726f76656420666f7220616c6c00006064820152608401610683565b6107248383610dba565b505050565b6107333382610e28565b61074f5760405162461bcd60e51b815260040161068390612452565b610724838383610e87565b6000610764611017565b905090565b6001600160a01b038216600090815260086020526040812061078b908361113e565b9392505050565b66470de4df8200003410156107f45760405162461bcd60e51b815260206004820152602260248201527f4e6f7420656e6f75676820657468657220746f207075726368617365204e4654604482015261399760f11b6064820152608401610683565b60006107ff600b5490565b905061080b828261124c565b610819600b80546001019055565b5050565b61072483838360405180602001604052806000815250610a9a565b600c546001600160a01b031633148061086957506108546109f7565b6001600160a01b0316336001600160a01b0316145b6108ce5760405162461bcd60e51b815260206004820152603060248201527f596f7520646f206e6f742068617665207065726d697373696f6e20746f20757360448201526f32903a3434b990333ab731ba34b7b71760811b6064820152608401610683565b805161081990600d906020840190611f9c565b6001600160a01b039081166000908152600760205260409020541690565b336108198183611266565b6000818152600260205260408120546001600160a01b03168061054f5760405162461bcd60e51b815260040161068390612420565b60006001600160a01b0382166109a95760405162461bcd60e51b815260206004820152602960248201527f4552433732313a2061646472657373207a65726f206973206e6f7420612076616044820152683634b21037bbb732b960b91b6064820152608401610683565b506001600160a01b031660009081526003602052604090205490565b6109cd6112e1565b6109d76000611340565b565b6001600160a01b0381166000908152600a602052604081205461054f565b6006546001600160a01b031690565b6000438210610a545760405162461bcd60e51b815260206004820152601a602482015279159bdd195cce88189b1bd8dac81b9bdd081e595d081b5a5b995960321b6044820152606401610683565b61054f60098361113e565b6060600180546105649061250f565b6001600160a01b038116600090815260086020526040812061054f90611392565b6108193383836113ed565b610aa43383610e28565b610ac05760405162461bcd60e51b815260040161068390612452565b610acc848484846114b8565b50505050565b83421115610b1d5760405162461bcd60e51b8152602060048201526018602482015277159bdd195cce881cda59db985d1d5c9948195e1c1a5c995960421b6044820152606401610683565b604080517fe48329057bfd03d55e49b547132e39cffd9c1820ad7b9d4c5307691425d15adf60208201526001600160a01b038816918101919091526060810186905260808101859052600090610b9790610b8f9060a001604051602081830303815290604052805190602001206114eb565b858585611539565b9050610ba281611561565b8614610be75760405162461bcd60e51b8152602060048201526014602482015273566f7465733a20696e76616c6964206e6f6e636560601b6044820152606401610683565b610bf18188611266565b50505050505050565b6060610c0582610d95565b6000610c0f611589565b90506000815111610c2f576040518060200160405280600081525061078b565b80610c3984611598565b604051602001610c4a92919061234f565b6040516020818303038152906040529392505050565b600d8054610c6d9061250f565b80601f0160208091040260200160405190810160405280929190818152602001828054610c999061250f565b8015610ce65780601f10610cbb57610100808354040283529160200191610ce6565b820191906000526020600020905b815481529060010190602001808311610cc957829003601f168201915b505050505081565b6001600160a01b03918216600090815260056020908152604080832093909416825291909152205460ff1690565b610d246112e1565b6001600160a01b038116610d895760405162461bcd60e51b815260206004820152602660248201527f4f776e61626c653a206e6577206f776e657220697320746865207a65726f206160448201526564647265737360d01b6064820152608401610683565b610d9281611340565b50565b610d9e81611695565b610d925760405162461bcd60e51b815260040161068390612420565b600081815260046020526040902080546001600160a01b0319166001600160a01b0384169081179091558190610def8261090a565b6001600160a01b03167f8c5be1e5ebec7d5bd14f71427d1e84f3dd0314c0f7b2291e5b200ac8c7c3b92560405160405180910390a45050565b600080610e348361090a565b9050806001600160a01b0316846001600160a01b03161480610e5b5750610e5b8185610cee565b80610e7f5750836001600160a01b0316610e74846105e7565b6001600160a01b0316145b949350505050565b826001600160a01b0316610e9a8261090a565b6001600160a01b031614610efe5760405162461bcd60e51b815260206004820152602560248201527f4552433732313a207472616e736665722066726f6d20696e636f72726563742060448201526437bbb732b960d91b6064820152608401610683565b6001600160a01b038216610f605760405162461bcd60e51b8152602060048201526024808201527f4552433732313a207472616e7366657220746f20746865207a65726f206164646044820152637265737360e01b6064820152608401610683565b610f6b600082610dba565b6001600160a01b0383166000908152600360205260408120805460019290610f949084906124cc565b90915550506001600160a01b0382166000908152600360205260408120805460019290610fc29084906124a0565b909155505060008181526002602052604080822080546001600160a01b0319166001600160a01b0386811691821790925591518493918716916000805160206125f883398151915291a46107248383836116b2565b6000306001600160a01b037f00000000000000000000000000000000000000000000000000000000000000001614801561107057507f000000000000000000000000000000000000000000000000000000000000000046145b1561109a57507f000000000000000000000000000000000000000000000000000000000000000090565b50604080517f00000000000000000000000000000000000000000000000000000000000000006020808301919091527f0000000000000000000000000000000000000000000000000000000000000000828401527f000000000000000000000000000000000000000000000000000000000000000060608301524660808301523060a0808401919091528351808403909101815260c0909201909252805191012090565b600043821061118f5760405162461bcd60e51b815260206004820181905260248201527f436865636b706f696e74733a20626c6f636b206e6f7420796574206d696e65646044820152606401610683565b825460005b818110156111f45760006111a882846116bd565b9050848660000182815481106111c0576111c06125b5565b60009182526020909120015463ffffffff1611156111e0578092506111ee565b6111eb8160016124a0565b91505b50611194565b811561123757846112066001846124cc565b81548110611216576112166125b5565b600091825260209091200154600160201b90046001600160e01b031661123a565b60005b6001600160e01b031695945050505050565b6108198282604051806020016040528060008152506116d8565b6000611271836108e1565b6001600160a01b0384811660008181526007602052604080822080546001600160a01b031916888616908117909155905194955093928516927f3134e8a2e6d97e929a7e54011ea5485d7d196dd5f0ba4d4ef95803e8e3fc257f9190a461072481836112dc8661170b565b611716565b336112ea6109f7565b6001600160a01b0316146109d75760405162461bcd60e51b815260206004820181905260248201527f4f776e61626c653a2063616c6c6572206973206e6f7420746865206f776e65726044820152606401610683565b600680546001600160a01b038381166001600160a01b0319831681179093556040519116919082907f8be0079c531659141344cd1fd0a4f28419497f9722a3daafe3b4186f6b6457e090600090a35050565b805460009080156113da57826113a96001836124cc565b815481106113b9576113b96125b5565b600091825260209091200154600160201b90046001600160e01b03166113dd565b60005b6001600160e01b03169392505050565b816001600160a01b0316836001600160a01b0316141561144b5760405162461bcd60e51b815260206004820152601960248201527822a9219b99189d1030b8383937bb32903a379031b0b63632b960391b6044820152606401610683565b6001600160a01b03838116600081815260056020908152604080832094871680845294825291829020805460ff191686151590811790915591519182527f17307eab39ab6107e8899845ad3d59bd9653f200f220920489ca2b5937696c31910160405180910390a3505050565b6114c3848484610e87565b6114cf8484848461182f565b610acc5760405162461bcd60e51b8152600401610683906123ce565b600061054f6114f8611017565b8360405161190160f01b6020820152602281018390526042810182905260009060620160405160208183030381529060405280519060200120905092915050565b600080600061154a87878787611939565b9150915061155781611a1c565b5095945050505050565b6001600160a01b0381166000908152600a602052604090208054600181018255905b50919050565b6060600d80546105649061250f565b6060816115bc5750506040805180820190915260018152600360fc1b602082015290565b8160005b81156115e657806115d081612544565b91506115df9050600a836124b8565b91506115c0565b6000816001600160401b03811115611600576116006125cb565b6040519080825280601f01601f19166020018201604052801561162a576020820181803683370190505b5090505b8415610e7f5761163f6001836124cc565b915061164c600a8661255f565b6116579060306124a0565b60f81b81838151811061166c5761166c6125b5565b60200101906001600160f81b031916908160001a90535061168e600a866124b8565b945061162e565b6000908152600260205260409020546001600160a01b0316151590565b610724838383611bd2565b60006116cc60028484186124b8565b61078b908484166124a0565b6116e28383611bde565b6116ef600084848461182f565b6107245760405162461bcd60e51b8152600401610683906123ce565b600061054f8261093f565b816001600160a01b0316836001600160a01b0316141580156117385750600081115b15610724576001600160a01b038316156117b4576001600160a01b0383166000908152600860205260408120819061177390611d0685611d12565b91509150846001600160a01b031660008051602061261883398151915283836040516117a9929190918252602082015260400190565b60405180910390a250505b6001600160a01b03821615610724576001600160a01b038216600090815260086020526040812081906117ea90611d4085611d12565b91509150836001600160a01b03166000805160206126188339815191528383604051611820929190918252602082015260400190565b60405180910390a25050505050565b60006001600160a01b0384163b1561193157604051630a85bd0160e11b81526001600160a01b0385169063150b7a029061187390339089908890889060040161237e565b602060405180830381600087803b15801561188d57600080fd5b505af19250505080156118bd575060408051601f3d908101601f191682019092526118ba918101906122a5565b60015b611917573d8080156118eb576040519150601f19603f3d011682016040523d82523d6000602084013e6118f0565b606091505b50805161190f5760405162461bcd60e51b8152600401610683906123ce565b805181602001fd5b6001600160e01b031916630a85bd0160e11b149050610e7f565b506001610e7f565b6000806fa2a8918ca85bafe22016d0b997e4df60600160ff1b038311156119665750600090506003611a13565b8460ff16601b1415801561197e57508460ff16601c14155b1561198f5750600090506004611a13565b6040805160008082526020820180845289905260ff881692820192909252606081018690526080810185905260019060a0016020604051602081039080840390855afa1580156119e3573d6000803e3d6000fd5b5050604051601f1901519150506001600160a01b038116611a0c57600060019250925050611a13565b9150600090505b94509492505050565b6000816004811115611a3057611a3061259f565b1415611a395750565b6001816004811115611a4d57611a4d61259f565b1415611a965760405162461bcd60e51b815260206004820152601860248201527745434453413a20696e76616c6964207369676e617475726560401b6044820152606401610683565b6002816004811115611aaa57611aaa61259f565b1415611af85760405162461bcd60e51b815260206004820152601f60248201527f45434453413a20696e76616c6964207369676e6174757265206c656e677468006044820152606401610683565b6003816004811115611b0c57611b0c61259f565b1415611b655760405162461bcd60e51b815260206004820152602260248201527f45434453413a20696e76616c6964207369676e6174757265202773272076616c604482015261756560f01b6064820152608401610683565b6004816004811115611b7957611b7961259f565b1415610d925760405162461bcd60e51b815260206004820152602260248201527f45434453413a20696e76616c6964207369676e6174757265202776272076616c604482015261756560f01b6064820152608401610683565b61072483836001611d4c565b6001600160a01b038216611c345760405162461bcd60e51b815260206004820181905260248201527f4552433732313a206d696e7420746f20746865207a65726f20616464726573736044820152606401610683565b611c3d81611695565b15611c895760405162461bcd60e51b815260206004820152601c60248201527b115490cdcc8c4e881d1bdad95b88185b1c9958591e481b5a5b9d195960221b6044820152606401610683565b6001600160a01b0382166000908152600360205260408120805460019290611cb29084906124a0565b909155505060008181526002602052604080822080546001600160a01b0319166001600160a01b03861690811790915590518392906000805160206125f8833981519152908290a4610819600083836116b2565b600061078b82846124cc565b600080611d3485611d2f611d2588611392565b868863ffffffff16565b611da5565b91509150935093915050565b600061078b82846124a0565b6001600160a01b038316611d6b57611d686009611d4083611d12565b50505b6001600160a01b038216611d8a57611d876009611d0683611d12565b50505b610724611d96846108e1565b611d9f846108e1565b83611716565b8154600090819081611db686611392565b9050600082118015611df457504386611dd06001856124cc565b81548110611de057611de06125b5565b60009182526020909120015463ffffffff16145b15611e5457611e0285611eca565b86611e0e6001856124cc565b81548110611e1e57611e1e6125b5565b9060005260206000200160000160046101000a8154816001600160e01b0302191690836001600160e01b03160217905550611ec1565b856000016040518060400160405280611e6c43611f37565b63ffffffff168152602001611e8088611eca565b6001600160e01b039081169091528254600181018455600093845260209384902083519490930151909116600160201b0263ffffffff909316929092179101555b95939450505050565b60006001600160e01b03821115611f335760405162461bcd60e51b815260206004820152602760248201527f53616665436173743a2076616c756520646f65736e27742066697420696e20326044820152663234206269747360c81b6064820152608401610683565b5090565b600063ffffffff821115611f335760405162461bcd60e51b815260206004820152602660248201527f53616665436173743a2076616c756520646f65736e27742066697420696e203360448201526532206269747360d01b6064820152608401610683565b828054611fa89061250f565b90600052602060002090601f016020900481019282611fca5760008555612010565b82601f10611fe357805160ff1916838001178555612010565b82800160010185558215612010579182015b82811115612010578251825591602001919060010190611ff5565b50611f339291505b80821115611f335760008155600101612018565b60006001600160401b0380841115612046576120466125cb565b604051601f8501601f19908116603f0116810190828211818310171561206e5761206e6125cb565b8160405280935085815286868601111561208757600080fd5b858560208301376000602087830101525050509392505050565b80356001600160a01b03811681146120b857600080fd5b919050565b6000602082840312156120cf57600080fd5b61078b826120a1565b600080604083850312156120eb57600080fd5b6120f4836120a1565b9150612102602084016120a1565b90509250929050565b60008060006060848603121561212057600080fd5b612129846120a1565b9250612137602085016120a1565b9150604084013590509250925092565b6000806000806080858703121561215d57600080fd5b612166856120a1565b9350612174602086016120a1565b92506040850135915060608501356001600160401b0381111561219657600080fd5b8501601f810187136121a757600080fd5b6121b68782356020840161202c565b91505092959194509250565b600080604083850312156121d557600080fd5b6121de836120a1565b9150602083013580151581146121f357600080fd5b809150509250929050565b6000806040838503121561221157600080fd5b61221a836120a1565b946020939093013593505050565b60008060008060008060c0878903121561224157600080fd5b61224a876120a1565b95506020870135945060408701359350606087013560ff8116811461226e57600080fd5b9598949750929560808101359460a0909101359350915050565b60006020828403121561229a57600080fd5b813561078b816125e1565b6000602082840312156122b757600080fd5b815161078b816125e1565b6000602082840312156122d457600080fd5b81356001600160401b038111156122ea57600080fd5b8201601f810184136122fb57600080fd5b610e7f8482356020840161202c565b60006020828403121561231c57600080fd5b5035919050565b6000815180845261233b8160208601602086016124e3565b601f01601f19169290920160200192915050565b600083516123618184602088016124e3565b8351908301906123758183602088016124e3565b01949350505050565b6001600160a01b03858116825284166020820152604081018390526080606082018190526000906123b190830184612323565b9695505050505050565b60208152600061078b6020830184612323565b60208082526032908201527f4552433732313a207472616e7366657220746f206e6f6e20455243373231526560408201527131b2b4bb32b91034b6b83632b6b2b73a32b960711b606082015260800190565b602080825260189082015277115490cdcc8c4e881a5b9d985b1a59081d1bdad95b88125160421b604082015260600190565b6020808252602e908201527f4552433732313a2063616c6c6572206973206e6f7420746f6b656e206f776e6560408201526d1c881b9bdc88185c1c1c9bdd995960921b606082015260800190565b600082198211156124b3576124b3612573565b500190565b6000826124c7576124c7612589565b500490565b6000828210156124de576124de612573565b500390565b60005b838110156124fe5781810151838201526020016124e6565b83811115610acc5750506000910152565b600181811c9082168061252357607f821691505b6020821081141561158357634e487b7160e01b600052602260045260246000fd5b600060001982141561255857612558612573565b5060010190565b60008261256e5761256e612589565b500690565b634e487b7160e01b600052601160045260246000fd5b634e487b7160e01b600052601260045260246000fd5b634e487b7160e01b600052602160045260246000fd5b634e487b7160e01b600052603260045260246000fd5b634e487b7160e01b600052604160045260246000fd5b6001600160e01b031981168114610d9257600080fdfeddf252ad1be2c89b69c2b068fc378daa952ba7f163c4a11628f55a4df523b3efdec2bacdd2f05b59de34da9b523dff8be42e5e38e818c82fdb0bae774387a724a164736f6c6343000806000a68747470733a2f2f676174657761792e70696e6174612e636c6f75642f697066732f516d523179484a596166426b7743584d666e79746f515872796979575769436e63546f746b4b78734867685447582f",
  "linkReferences": {},
  "deployedLinkReferences": {}
}