{
  "_format": "hh-sol-artifact-1",
  "contractName": "ProjectGovernor",
  "sourceName": "contracts/ProjectGovernor.sol",
  "abi": [
    {
      "inputs": [
        {
          "internalType": "contract IVotes",
          "name": "_token",
          "type": "address"
        },
        {
          "internalType": "contract ICompoundTimelock",
          "name": "_timelock",
          "type": "address"
        },
        {
          "internalType": "contract IMyGovernor",
          "name": "_governor",
          "type": "address"
        },
        {
          "internalType": "uint256",
          "name": "proposalId",
          "type": "uint256"
        }
      ],
      "stateMutability": "nonpayable",
      "type": "constructor"
    },
    {
      "inputs": [],
      "name": "Empty",
      "type": "error"
    },
    {
      "anonymous": false,
      "inputs": [
        {
          "indexed": false,
          "internalType": "uint256",
          "name": "proposalId",
          "type": "uint256"
        }
      ],
      "name": "ProposalCanceled",
      "type": "event"
    },
    {
      "anonymous": false,
      "inputs": [
        {
          "indexed": false,
          "internalType": "uint256",
          "name": "proposalId",
          "type": "uint256"
        },
        {
          "indexed": false,
          "internalType": "address",
          "name": "proposer",
          "type": "address"
        },
        {
          "indexed": false,
          "internalType": "address[]",
          "name": "targets",
          "type": "address[]"
        },
        {
          "indexed": false,
          "internalType": "uint256[]",
          "name": "values",
          "type": "uint256[]"
        },
        {
          "indexed": false,
          "internalType": "string[]",
          "name": "signatures",
          "type": "string[]"
        },
        {
          "indexed": false,
          "internalType": "bytes[]",
          "name": "calldatas",
          "type": "bytes[]"
        },
        {
          "indexed": false,
          "internalType": "uint256",
          "name": "startBlock",
          "type": "uint256"
        },
        {
          "indexed": false,
          "internalType": "uint256",
          "name": "endBlock",
          "type": "uint256"
        },
        {
          "indexed": false,
          "internalType": "string",
          "name": "description",
          "type": "string"
        }
      ],
      "name": "ProposalCreated",
      "type": "event"
    },
    {
      "anonymous": false,
      "inputs": [
        {
          "indexed": false,
          "internalType": "uint256",
          "name": "proposalId",
          "type": "uint256"
        }
      ],
      "name": "ProposalExecuted",
      "type": "event"
    },
    {
      "anonymous": false,
      "inputs": [
        {
          "indexed": false,
          "internalType": "uint256",
          "name": "proposalId",
          "type": "uint256"
        },
        {
          "indexed": false,
          "internalType": "uint256",
          "name": "eta",
          "type": "uint256"
        }
      ],
      "name": "ProposalQueued",
      "type": "event"
    },
    {
      "anonymous": false,
      "inputs": [
        {
          "indexed": false,
          "internalType": "uint256",
          "name": "oldProposalThreshold",
          "type": "uint256"
        },
        {
          "indexed": false,
          "internalType": "uint256",
          "name": "newProposalThreshold",
          "type": "uint256"
        }
      ],
      "name": "ProposalThresholdSet",
      "type": "event"
    },
    {
      "anonymous": false,
      "inputs": [
        {
          "indexed": false,
          "internalType": "address",
          "name": "oldTimelock",
          "type": "address"
        },
        {
          "indexed": false,
          "internalType": "address",
          "name": "newTimelock",
          "type": "address"
        }
      ],
      "name": "TimelockChange",
      "type": "event"
    },
    {
      "anonymous": false,
      "inputs": [
        {
          "indexed": true,
          "internalType": "address",
          "name": "voter",
          "type": "address"
        },
        {
          "indexed": false,
          "internalType": "uint256",
          "name": "proposalId",
          "type": "uint256"
        },
        {
          "indexed": false,
          "internalType": "uint8",
          "name": "support",
          "type": "uint8"
        },
        {
          "indexed": false,
          "internalType": "uint256",
          "name": "weight",
          "type": "uint256"
        },
        {
          "indexed": false,
          "internalType": "string",
          "name": "reason",
          "type": "string"
        }
      ],
      "name": "VoteCast",
      "type": "event"
    },
    {
      "anonymous": false,
      "inputs": [
        {
          "indexed": true,
          "internalType": "address",
          "name": "voter",
          "type": "address"
        },
        {
          "indexed": false,
          "internalType": "uint256",
          "name": "proposalId",
          "type": "uint256"
        },
        {
          "indexed": false,
          "internalType": "uint8",
          "name": "support",
          "type": "uint8"
        },
        {
          "indexed": false,
          "internalType": "uint256",
          "name": "weight",
          "type": "uint256"
        },
        {
          "indexed": false,
          "internalType": "string",
          "name": "reason",
          "type": "string"
        },
        {
          "indexed": false,
          "internalType": "bytes",
          "name": "params",
          "type": "bytes"
        }
      ],
      "name": "VoteCastWithParams",
      "type": "event"
    },
    {
      "anonymous": false,
      "inputs": [
        {
          "indexed": false,
          "internalType": "uint256",
          "name": "oldVotingDelay",
          "type": "uint256"
        },
        {
          "indexed": false,
          "internalType": "uint256",
          "name": "newVotingDelay",
          "type": "uint256"
        }
      ],
      "name": "VotingDelaySet",
      "type": "event"
    },
    {
      "anonymous": false,
      "inputs": [
        {
          "indexed": false,
          "internalType": "uint256",
          "name": "oldVotingPeriod",
          "type": "uint256"
        },
        {
          "indexed": false,
          "internalType": "uint256",
          "name": "newVotingPeriod",
          "type": "uint256"
        }
      ],
      "name": "VotingPeriodSet",
      "type": "event"
    },
    {
      "inputs": [],
      "name": "BALLOT_TYPEHASH",
      "outputs": [
        {
          "internalType": "bytes32",
          "name": "",
          "type": "bytes32"
        }
      ],
      "stateMutability": "view",
      "type": "function"
    },
    {
      "inputs": [],
      "name": "COUNTING_MODE",
      "outputs": [
        {
          "internalType": "string",
          "name": "",
          "type": "string"
        }
      ],
      "stateMutability": "pure",
      "type": "function"
    },
    {
      "inputs": [],
      "name": "EXTENDED_BALLOT_TYPEHASH",
      "outputs": [
        {
          "internalType": "bytes32",
          "name": "",
          "type": "bytes32"
        }
      ],
      "stateMutability": "view",
      "type": "function"
    },
    {
      "inputs": [],
      "name": "__acceptAdmin",
      "outputs": [],
      "stateMutability": "nonpayable",
      "type": "function"
    },
    {
      "inputs": [
        {
          "internalType": "uint256",
          "name": "proposalId",
          "type": "uint256"
        },
        {
          "internalType": "uint8",
          "name": "support",
          "type": "uint8"
        }
      ],
      "name": "castLocalVote",
      "outputs": [
        {
          "internalType": "uint256",
          "name": "",
          "type": "uint256"
        }
      ],
      "stateMutability": "nonpayable",
      "type": "function"
    },
    {
      "inputs": [
        {
          "internalType": "uint256",
          "name": "proposalId",
          "type": "uint256"
        },
        {
          "internalType": "uint8",
          "name": "support",
          "type": "uint8"
        }
      ],
      "name": "castVote",
      "outputs": [
        {
          "internalType": "uint256",
          "name": "",
          "type": "uint256"
        }
      ],
      "stateMutability": "nonpayable",
      "type": "function"
    },
    {
      "inputs": [
        {
          "internalType": "uint256",
          "name": "proposalId",
          "type": "uint256"
        },
        {
          "internalType": "uint8",
          "name": "support",
          "type": "uint8"
        }
      ],
      "name": "castVoteAllIn",
      "outputs": [
        {
          "internalType": "uint256",
          "name": "",
          "type": "uint256"
        }
      ],
      "stateMutability": "payable",
      "type": "function"
    },
    {
      "inputs": [
        {
          "internalType": "uint256",
          "name": "proposalId",
          "type": "uint256"
        },
        {
          "internalType": "uint8",
          "name": "support",
          "type": "uint8"
        },
        {
          "internalType": "uint8",
          "name": "v",
          "type": "uint8"
        },
        {
          "internalType": "bytes32",
          "name": "r",
          "type": "bytes32"
        },
        {
          "internalType": "bytes32",
          "name": "s",
          "type": "bytes32"
        }
      ],
      "name": "castVoteBySig",
      "outputs": [
        {
          "internalType": "uint256",
          "name": "",
          "type": "uint256"
        }
      ],
      "stateMutability": "nonpayable",
      "type": "function"
    },
    {
      "inputs": [
        {
          "internalType": "uint256",
          "name": "proposalId",
          "type": "uint256"
        },
        {
          "internalType": "uint8",
          "name": "support",
          "type": "uint8"
        }
      ],
      "name": "castVoteSimple",
      "outputs": [
        {
          "internalType": "uint256",
          "name": "",
          "type": "uint256"
        }
      ],
      "stateMutability": "payable",
      "type": "function"
    },
    {
      "inputs": [
        {
          "internalType": "uint256",
          "name": "proposalId",
          "type": "uint256"
        },
        {
          "internalType": "uint8",
          "name": "support",
          "type": "uint8"
        },
        {
          "internalType": "string",
          "name": "reason",
          "type": "string"
        }
      ],
      "name": "castVoteWithReason",
      "outputs": [
        {
          "internalType": "uint256",
          "name": "",
          "type": "uint256"
        }
      ],
      "stateMutability": "nonpayable",
      "type": "function"
    },
    {
      "inputs": [
        {
          "internalType": "uint256",
          "name": "proposalId",
          "type": "uint256"
        },
        {
          "internalType": "uint8",
          "name": "support",
          "type": "uint8"
        },
        {
          "internalType": "string",
          "name": "reason",
          "type": "string"
        },
        {
          "internalType": "bytes",
          "name": "params",
          "type": "bytes"
        }
      ],
      "name": "castVoteWithReasonAndParams",
      "outputs": [
        {
          "internalType": "uint256",
          "name": "",
          "type": "uint256"
        }
      ],
      "stateMutability": "nonpayable",
      "type": "function"
    },
    {
      "inputs": [
        {
          "internalType": "uint256",
          "name": "proposalId",
          "type": "uint256"
        },
        {
          "internalType": "uint8",
          "name": "support",
          "type": "uint8"
        },
        {
          "internalType": "string",
          "name": "reason",
          "type": "string"
        },
        {
          "internalType": "bytes",
          "name": "params",
          "type": "bytes"
        },
        {
          "internalType": "uint8",
          "name": "v",
          "type": "uint8"
        },
        {
          "internalType": "bytes32",
          "name": "r",
          "type": "bytes32"
        },
        {
          "internalType": "bytes32",
          "name": "s",
          "type": "bytes32"
        }
      ],
      "name": "castVoteWithReasonAndParamsBySig",
      "outputs": [
        {
          "internalType": "uint256",
          "name": "",
          "type": "uint256"
        }
      ],
      "stateMutability": "nonpayable",
      "type": "function"
    },
    {
      "inputs": [
        {
          "internalType": "address[]",
          "name": "targets",
          "type": "address[]"
        },
        {
          "internalType": "uint256[]",
          "name": "values",
          "type": "uint256[]"
        },
        {
          "internalType": "bytes[]",
          "name": "calldatas",
          "type": "bytes[]"
        },
        {
          "internalType": "bytes32",
          "name": "descriptionHash",
          "type": "bytes32"
        }
      ],
      "name": "execute",
      "outputs": [
        {
          "internalType": "uint256",
          "name": "",
          "type": "uint256"
        }
      ],
      "stateMutability": "payable",
      "type": "function"
    },
    {
      "inputs": [],
      "name": "getBalance",
      "outputs": [
        {
          "internalType": "uint256",
          "name": "",
          "type": "uint256"
        }
      ],
      "stateMutability": "view",
      "type": "function"
    },
    {
      "inputs": [
        {
          "internalType": "uint256",
          "name": "proposalId",
          "type": "uint256"
        }
      ],
      "name": "getProposerBudget",
      "outputs": [
        {
          "internalType": "uint256",
          "name": "",
          "type": "uint256"
        }
      ],
      "stateMutability": "view",
      "type": "function"
    },
    {
      "inputs": [
        {
          "internalType": "uint256",
          "name": "proposalId",
          "type": "uint256"
        }
      ],
      "name": "getProposerName",
      "outputs": [
        {
          "internalType": "address",
          "name": "",
          "type": "address"
        }
      ],
      "stateMutability": "view",
      "type": "function"
    },
    {
      "inputs": [
        {
          "internalType": "address",
          "name": "account",
          "type": "address"
        },
        {
          "internalType": "uint256",
          "name": "blockNumber",
          "type": "uint256"
        }
      ],
      "name": "getVotes",
      "outputs": [
        {
          "internalType": "uint256",
          "name": "",
          "type": "uint256"
        }
      ],
      "stateMutability": "view",
      "type": "function"
    },
    {
      "inputs": [
        {
          "internalType": "address",
          "name": "account",
          "type": "address"
        },
        {
          "internalType": "uint256",
          "name": "blockNumber",
          "type": "uint256"
        },
        {
          "internalType": "bytes",
          "name": "params",
          "type": "bytes"
        }
      ],
      "name": "getVotesWithParams",
      "outputs": [
        {
          "internalType": "uint256",
          "name": "",
          "type": "uint256"
        }
      ],
      "stateMutability": "view",
      "type": "function"
    },
    {
      "inputs": [
        {
          "internalType": "uint256",
          "name": "proposalId",
          "type": "uint256"
        },
        {
          "internalType": "address",
          "name": "account",
          "type": "address"
        }
      ],
      "name": "hasVoted",
      "outputs": [
        {
          "internalType": "bool",
          "name": "",
          "type": "bool"
        }
      ],
      "stateMutability": "view",
      "type": "function"
    },
    {
      "inputs": [
        {
          "internalType": "address[]",
          "name": "targets",
          "type": "address[]"
        },
        {
          "internalType": "uint256[]",
          "name": "values",
          "type": "uint256[]"
        },
        {
          "internalType": "bytes[]",
          "name": "calldatas",
          "type": "bytes[]"
        },
        {
          "internalType": "bytes32",
          "name": "descriptionHash",
          "type": "bytes32"
        }
      ],
      "name": "hashProposal",
      "outputs": [
        {
          "internalType": "uint256",
          "name": "",
          "type": "uint256"
        }
      ],
      "stateMutability": "pure",
      "type": "function"
    },
    {
      "inputs": [
        {
          "internalType": "uint256",
          "name": "",
          "type": "uint256"
        }
      ],
      "name": "hotProposals",
      "outputs": [
        {
          "internalType": "uint256",
          "name": "",
          "type": "uint256"
        }
      ],
      "stateMutability": "view",
      "type": "function"
    },
    {
      "inputs": [],
      "name": "hotPtr",
      "outputs": [
        {
          "internalType": "uint8",
          "name": "",
          "type": "uint8"
        }
      ],
      "stateMutability": "view",
      "type": "function"
    },
    {
      "inputs": [],
      "name": "initialBudget",
      "outputs": [
        {
          "internalType": "uint256",
          "name": "",
          "type": "uint256"
        }
      ],
      "stateMutability": "view",
      "type": "function"
    },
    {
      "inputs": [],
      "name": "initialProposer",
      "outputs": [
        {
          "internalType": "address",
          "name": "",
          "type": "address"
        }
      ],
      "stateMutability": "view",
      "type": "function"
    },
    {
      "inputs": [
        {
          "internalType": "address",
          "name": "account",
          "type": "address"
        }
      ],
      "name": "isLoyal",
      "outputs": [
        {
          "internalType": "bool",
          "name": "",
          "type": "bool"
        }
      ],
      "stateMutability": "nonpayable",
      "type": "function"
    },
    {
      "inputs": [],
      "name": "latestProposal",
      "outputs": [
        {
          "internalType": "uint256",
          "name": "",
          "type": "uint256"
        }
      ],
      "stateMutability": "view",
      "type": "function"
    },
    {
      "inputs": [],
      "name": "myGlobalGov",
      "outputs": [
        {
          "internalType": "address",
          "name": "",
          "type": "address"
        }
      ],
      "stateMutability": "view",
      "type": "function"
    },
    {
      "inputs": [],
      "name": "name",
      "outputs": [
        {
          "internalType": "string",
          "name": "",
          "type": "string"
        }
      ],
      "stateMutability": "view",
      "type": "function"
    },
    {
      "inputs": [
        {
          "internalType": "address",
          "name": "",
          "type": "address"
        },
        {
          "internalType": "address",
          "name": "",
          "type": "address"
        },
        {
          "internalType": "uint256[]",
          "name": "",
          "type": "uint256[]"
        },
        {
          "internalType": "uint256[]",
          "name": "",
          "type": "uint256[]"
        },
        {
          "internalType": "bytes",
          "name": "",
          "type": "bytes"
        }
      ],
      "name": "onERC1155BatchReceived",
      "outputs": [
        {
          "internalType": "bytes4",
          "name": "",
          "type": "bytes4"
        }
      ],
      "stateMutability": "nonpayable",
      "type": "function"
    },
    {
      "inputs": [
        {
          "internalType": "address",
          "name": "",
          "type": "address"
        },
        {
          "internalType": "address",
          "name": "",
          "type": "address"
        },
        {
          "internalType": "uint256",
          "name": "",
          "type": "uint256"
        },
        {
          "internalType": "uint256",
          "name": "",
          "type": "uint256"
        },
        {
          "internalType": "bytes",
          "name": "",
          "type": "bytes"
        }
      ],
      "name": "onERC1155Received",
      "outputs": [
        {
          "internalType": "bytes4",
          "name": "",
          "type": "bytes4"
        }
      ],
      "stateMutability": "nonpayable",
      "type": "function"
    },
    {
      "inputs": [
        {
          "internalType": "address",
          "name": "",
          "type": "address"
        },
        {
          "internalType": "address",
          "name": "",
          "type": "address"
        },
        {
          "internalType": "uint256",
          "name": "",
          "type": "uint256"
        },
        {
          "internalType": "bytes",
          "name": "",
          "type": "bytes"
        }
      ],
      "name": "onERC721Received",
      "outputs": [
        {
          "internalType": "bytes4",
          "name": "",
          "type": "bytes4"
        }
      ],
      "stateMutability": "nonpayable",
      "type": "function"
    },
    {
      "inputs": [],
      "name": "owner",
      "outputs": [
        {
          "internalType": "address",
          "name": "",
          "type": "address"
        }
      ],
      "stateMutability": "view",
      "type": "function"
    },
    {
      "inputs": [
        {
          "internalType": "uint256",
          "name": "proposalId",
          "type": "uint256"
        }
      ],
      "name": "proposalDeadline",
      "outputs": [
        {
          "internalType": "uint256",
          "name": "",
          "type": "uint256"
        }
      ],
      "stateMutability": "view",
      "type": "function"
    },
    {
      "inputs": [
        {
          "internalType": "uint256",
          "name": "proposalId",
          "type": "uint256"
        }
      ],
      "name": "proposalEta",
      "outputs": [
        {
          "internalType": "uint256",
          "name": "",
          "type": "uint256"
        }
      ],
      "stateMutability": "view",
      "type": "function"
    },
    {
      "inputs": [
        {
          "internalType": "uint256",
          "name": "proposalId",
          "type": "uint256"
        }
      ],
      "name": "proposalSnapshot",
      "outputs": [
        {
          "internalType": "uint256",
          "name": "",
          "type": "uint256"
        }
      ],
      "stateMutability": "view",
      "type": "function"
    },
    {
      "inputs": [],
      "name": "proposalThreshold",
      "outputs": [
        {
          "internalType": "uint256",
          "name": "",
          "type": "uint256"
        }
      ],
      "stateMutability": "view",
      "type": "function"
    },
    {
      "inputs": [
        {
          "internalType": "uint256",
          "name": "proposalId",
          "type": "uint256"
        }
      ],
      "name": "proposalVotes",
      "outputs": [
        {
          "internalType": "uint256",
          "name": "againstVotes",
          "type": "uint256"
        },
        {
          "internalType": "uint256",
          "name": "forVotes",
          "type": "uint256"
        },
        {
          "internalType": "uint256",
          "name": "abstainVotes",
          "type": "uint256"
        }
      ],
      "stateMutability": "view",
      "type": "function"
    },
    {
      "inputs": [
        {
          "internalType": "address[]",
          "name": "targets",
          "type": "address[]"
        },
        {
          "internalType": "uint256[]",
          "name": "values",
          "type": "uint256[]"
        },
        {
          "internalType": "bytes[]",
          "name": "calldatas",
          "type": "bytes[]"
        },
        {
          "internalType": "string",
          "name": "description",
          "type": "string"
        }
      ],
      "name": "propose",
      "outputs": [
        {
          "internalType": "uint256",
          "name": "",
          "type": "uint256"
        }
      ],
      "stateMutability": "nonpayable",
      "type": "function"
    },
    {
      "inputs": [
        {
          "internalType": "uint256",
          "name": "proposalId",
          "type": "uint256"
        }
      ],
      "name": "quadraticVoting",
      "outputs": [],
      "stateMutability": "payable",
      "type": "function"
    },
    {
      "inputs": [
        {
          "internalType": "address[]",
          "name": "targets",
          "type": "address[]"
        },
        {
          "internalType": "uint256[]",
          "name": "values",
          "type": "uint256[]"
        },
        {
          "internalType": "bytes[]",
          "name": "calldatas",
          "type": "bytes[]"
        },
        {
          "internalType": "bytes32",
          "name": "descriptionHash",
          "type": "bytes32"
        }
      ],
      "name": "queue",
      "outputs": [
        {
          "internalType": "uint256",
          "name": "",
          "type": "uint256"
        }
      ],
      "stateMutability": "nonpayable",
      "type": "function"
    },
    {
      "inputs": [
        {
          "internalType": "uint256",
          "name": "blockNumber",
          "type": "uint256"
        }
      ],
      "name": "quorum",
      "outputs": [
        {
          "internalType": "uint256",
          "name": "",
          "type": "uint256"
        }
      ],
      "stateMutability": "pure",
      "type": "function"
    },
    {
      "inputs": [
        {
          "internalType": "address",
          "name": "target",
          "type": "address"
        },
        {
          "internalType": "uint256",
          "name": "value",
          "type": "uint256"
        },
        {
          "internalType": "bytes",
          "name": "data",
          "type": "bytes"
        }
      ],
      "name": "relay",
      "outputs": [],
      "stateMutability": "nonpayable",
      "type": "function"
    },
    {
      "inputs": [
        {
          "internalType": "uint256",
          "name": "proposalId",
          "type": "uint256"
        },
        {
          "internalType": "uint256",
          "name": "budget",
          "type": "uint256"
        }
      ],
      "name": "setProposalBudget",
      "outputs": [],
      "stateMutability": "nonpayable",
      "type": "function"
    },
    {
      "inputs": [
        {
          "internalType": "uint256",
          "name": "newProposalThreshold",
          "type": "uint256"
        }
      ],
      "name": "setProposalThreshold",
      "outputs": [],
      "stateMutability": "nonpayable",
      "type": "function"
    },
    {
      "inputs": [
        {
          "internalType": "uint256",
          "name": "newVotingDelay",
          "type": "uint256"
        }
      ],
      "name": "setVotingDelay",
      "outputs": [],
      "stateMutability": "nonpayable",
      "type": "function"
    },
    {
      "inputs": [
        {
          "internalType": "uint256",
          "name": "newVotingPeriod",
          "type": "uint256"
        }
      ],
      "name": "setVotingPeriod",
      "outputs": [],
      "stateMutability": "nonpayable",
      "type": "function"
    },
    {
      "inputs": [
        {
          "internalType": "uint256",
          "name": "proposalId",
          "type": "uint256"
        }
      ],
      "name": "state",
      "outputs": [
        {
          "internalType": "enum IGovernor.ProposalState",
          "name": "",
          "type": "uint8"
        }
      ],
      "stateMutability": "view",
      "type": "function"
    },
    {
      "inputs": [
        {
          "internalType": "bytes4",
          "name": "interfaceId",
          "type": "bytes4"
        }
      ],
      "name": "supportsInterface",
      "outputs": [
        {
          "internalType": "bool",
          "name": "",
          "type": "bool"
        }
      ],
      "stateMutability": "view",
      "type": "function"
    },
    {
      "inputs": [],
      "name": "timelock",
      "outputs": [
        {
          "internalType": "address",
          "name": "",
          "type": "address"
        }
      ],
      "stateMutability": "view",
      "type": "function"
    },
    {
      "inputs": [],
      "name": "token",
      "outputs": [
        {
          "internalType": "contract IVotes",
          "name": "",
          "type": "address"
        }
      ],
      "stateMutability": "view",
      "type": "function"
    },
    {
      "inputs": [],
      "name": "tokenAddress",
      "outputs": [
        {
          "internalType": "address",
          "name": "",
          "type": "address"
        }
      ],
      "stateMutability": "view",
      "type": "function"
    },
    {
      "inputs": [
        {
          "internalType": "contract ICompoundTimelock",
          "name": "newTimelock",
          "type": "address"
        }
      ],
      "name": "updateTimelock",
      "outputs": [],
      "stateMutability": "nonpayable",
      "type": "function"
    },
    {
      "inputs": [],
      "name": "version",
      "outputs": [
        {
          "internalType": "string",
          "name": "",
          "type": "string"
        }
      ],
      "stateMutability": "view",
      "type": "function"
    },
    {
      "inputs": [],
      "name": "votingDelay",
      "outputs": [
        {
          "internalType": "uint256",
          "name": "",
          "type": "uint256"
        }
      ],
      "stateMutability": "view",
      "type": "function"
    },
    {
      "inputs": [],
      "name": "votingPeriod",
      "outputs": [
        {
          "internalType": "uint256",
          "name": "",
          "type": "uint256"
        }
      ],
      "stateMutability": "view",
      "type": "function"
    },
    {
      "stateMutability": "payable",
      "type": "receive"
    }
  ],
  "bytecode": "0x6101606040526015805460ff191690553480156200001c57600080fd5b5060405162004abe38038062004abe8339810160408190526200003f916200053c565b82846001601460026040518060400160405280600a81526020016926bca3b7bb32b93737b960b11b815250806200007b620002c360201b60201c565b815160208084019190912082518383012060e08290526101008190524660a0818152604080517f8b73c3c69bb8fe3d512ecc4cf759cc79239f7b179b0ffacaa9a75d522b39400f81880181905281830187905260608201869052608082019490945230818401528151808203909301835260c00190528051940193909320919290916080523060601b60c05261012052505082516200012492506000915060208401906200046f565b5062000132905083620002de565b6200013d826200031f565b6200014881620003c5565b50505060601b6001600160601b03191661014052620001678162000406565b50600a80546001600160a01b038087166001600160a01b031992831617909255600c8054821633179055600b805492851692909116821790556040516206a9bb60ec1b8152636a9bb00090620001c590849060040190815260200190565b60206040518083038186803b158015620001de57600080fd5b505afa158015620001f3573d6000803e3d6000fd5b505050506040513d601f19601f8201168201806040525081019062000219919062000596565b600d556040516322efb3e760e11b8152600481018290526001600160a01b038316906345df67ce9060240160206040518083038186803b1580156200025d57600080fd5b505afa15801562000272573d6000803e3d6000fd5b505050506040513d601f19601f8201168201806040525081019062000298919062000515565b600e80546001600160a01b0319166001600160a01b0392909216919091179055506200060692505050565b6040805180820190915260018152603160f81b602082015290565b60045460408051918252602082018390527fc565b045403dc03c2eea82b81a0465edad9e2e7fc4d97e11421c209da93d7a93910160405180910390a1600455565b60008111620003845760405162461bcd60e51b815260206004820152602760248201527f476f7665726e6f7253657474696e67733a20766f74696e6720706572696f6420604482015266746f6f206c6f7760c81b606482015260840160405180910390fd5b60055460408051918252602082018390527f7e3f7f0708a84de9203036abaa450dccc85ad5ff52f78c170f3edb55cf5e8828910160405180910390a1600555565b60065460408051918252602082018390527fccb45da8d5717e6c4544694297c4ba5cf151d455c9bb0ed4fc7a38411bc05461910160405180910390a1600655565b600854604080516001600160a01b03928316815291831660208301527f08f74ea46ef7894f65eabfb5e6e695de773a000b47c529ab559178069b226401910160405180910390a1600880546001600160a01b0319166001600160a01b0392909216919091179055565b8280546200047d90620005b0565b90600052602060002090601f016020900481019282620004a15760008555620004ec565b82601f10620004bc57805160ff1916838001178555620004ec565b82800160010185558215620004ec579182015b82811115620004ec578251825591602001919060010190620004cf565b50620004fa929150620004fe565b5090565b5b80821115620004fa5760008155600101620004ff565b6000602082840312156200052857600080fd5b81516200053581620005ed565b9392505050565b600080600080608085870312156200055357600080fd5b84516200056081620005ed565b60208601519094506200057381620005ed565b60408601519093506200058681620005ed565b6060959095015193969295505050565b600060208284031215620005a957600080fd5b5051919050565b600181811c90821680620005c557607f821691505b60208210811415620005e757634e487b7160e01b600052602260045260246000fd5b50919050565b6001600160a01b03811681146200060357600080fd5b50565b60805160a05160c05160601c60e05161010051610120516101405160601c6144506200066e600039600081816109d9015261216201526000612b2c01526000612b7b01526000612b5601526000612aaf01526000612ad901526000612b0301526144506000f3fe6080604052600436106102745760003560e01c806301ffc9a71461029c57806302a251a3146102d157806303420181146102f457806303c5ce141461031457806306fdde031461033457806312065fe014610356578063150b7a0214610369578063160cbed7146103ad578063218bc432146103cd578063227588b5146103fa5780632656227d1461040d5780632d63f693146104205780632fe3e261146104405780633932abb1146104625780633bccf4fd146104775780633e4f49e61461049757806343859632146104c457806345df67ce146104e4578063544ffc9c1461051a57806354fd4d501461056f57806356781388146105995780635d949972146105b95780635f398a14146105d95780636a9bb000146105f957806370b0f660146106295780637b3c71d3146106495780637d5e81e2146106695780638506a6d9146106895780638da5cb5b146106a95780639a802a6d146106c95780639c61248a146106e95780639d76ea58146106fc578063a890c9101461071c578063ab58fb8e1461073c578063ae56e40a1461075c578063b04a393714610788578063b58131b01461079e578063b9a61961146107b3578063bc197c81146107c8578063bf1c4574146107f4578063c006b57f14610814578063c01f9e3714610827578063c28bc2fa14610847578063c2b7983614610867578063c59057e41461087d578063d33219b41461089d578063dd4e2ba5146108b2578063deaaa7cc146108f8578063ea0217cf1461091a578063eb9019d41461093a578063ece40cc11461095a578063f23a6e611461097a578063f8ce560a146109a6578063fc0c546a146109c7578063fd590579146109fb57600080fd5b366102975730610282610a1b565b6001600160a01b03161461029557600080fd5b005b600080fd5b3480156102a857600080fd5b506102bc6102b73660046139be565b610a2a565b60405190151581526020015b60405180910390f35b3480156102dd57600080fd5b506102e6610a3b565b6040519081526020016102c8565b34801561030057600080fd5b506102e661030f366004613b96565b610a46565b34801561032057600080fd5b506102bc61032f3660046135c4565b610b2c565b34801561034057600080fd5b50610349610bc6565b6040516102c89190613e78565b34801561036257600080fd5b50476102e6565b34801561037557600080fd5b5061039461038436600461368e565b630a85bd0160e11b949350505050565b6040516001600160e01b031990911681526020016102c8565b3480156103b957600080fd5b506102e66103c8366004613840565b610c58565b3480156103d957600080fd5b50600b546103ed906001600160a01b031681565b6040516102c89190613dab565b610295610408366004613a55565b61103d565b6102e661041b366004613840565b6110fd565b34801561042c57600080fd5b506102e661043b366004613a55565b611326565b34801561044c57600080fd5b506102e66000805160206143bb83398151915281565b34801561046e57600080fd5b506102e661135d565b34801561048357600080fd5b506102e6610492366004613c3c565b611368565b3480156104a357600080fd5b506104b76104b2366004613a55565b6113cc565b6040516102c89190613e50565b3480156104d057600080fd5b506102bc6104df366004613a6e565b6113d7565b3480156104f057600080fd5b506103ed6104ff366004613a55565b6000908152600f60205260409020546001600160a01b031690565b34801561052657600080fd5b50610554610535366004613a55565b6000908152600760205260409020805460018201546002909201549092565b604080519384526020840192909252908201526060016102c8565b34801561057b57600080fd5b506040805180820190915260018152603160f81b6020820152610349565b3480156105a557600080fd5b506102e66105b4366004613ac0565b611406565b3480156105c557600080fd5b506102956105d4366004613a9e565b61142f565b3480156105e557600080fd5b506102e66105f4366004613b2d565b61155f565b34801561060557600080fd5b506102e6610614366004613a55565b6000908152600f602052604090206001015490565b34801561063557600080fd5b50610295610644366004613a55565b6115a9565b34801561065557600080fd5b506102e6610664366004613aec565b611638565b34801561067557600080fd5b506102e66106843660046138cf565b61168a565b34801561069557600080fd5b506102e66106a4366004613ac0565b611774565b3480156106b557600080fd5b50600c546103ed906001600160a01b031681565b3480156106d557600080fd5b506102e66106e43660046137e8565b611864565b6102e66106f7366004613ac0565b61187b565b34801561070857600080fd5b50600a546103ed906001600160a01b031681565b34801561072857600080fd5b506102956107373660046135c4565b611968565b34801561074857600080fd5b506102e6610757366004613a55565b6119f4565b34801561076857600080fd5b506015546107769060ff1681565b60405160ff90911681526020016102c8565b34801561079457600080fd5b506102e6600d5481565b3480156107aa57600080fd5b506102e6611a20565b3480156107bf57600080fd5b50610295611a2b565b3480156107d457600080fd5b506103946107e33660046135e1565b63bc197c8160e01b95945050505050565b34801561080057600080fd5b50600e546103ed906001600160a01b031681565b6102e6610822366004613ac0565b611a95565b34801561083357600080fd5b506102e6610842366004613a55565b611c89565b34801561085357600080fd5b5061029561086236600461378d565b611cb8565b34801561087357600080fd5b506102e660145481565b34801561088957600080fd5b506102e6610898366004613840565b611d84565b3480156108a957600080fd5b506103ed611dbe565b3480156108be57600080fd5b506040805180820190915260208082527f737570706f72743d627261766f2671756f72756d3d666f722c6162737461696e90820152610349565b34801561090457600080fd5b506102e660008051602061439b83398151915281565b34801561092657600080fd5b50610295610935366004613a55565b611dcd565b34801561094657600080fd5b506102e6610955366004613761565b611e59565b34801561096657600080fd5b50610295610975366004613a55565b611e7a565b34801561098657600080fd5b506103946109953660046136f9565b63f23a6e6160e01b95945050505050565b3480156109b257600080fd5b506102e66109c1366004613a55565b50600390565b3480156109d357600080fd5b506103ed7f000000000000000000000000000000000000000000000000000000000000000081565b348015610a0757600080fd5b506102e6610a16366004613a55565b611f06565b6000610a25611dbe565b905090565b6000610a3582611f1d565b92915050565b6000610a2560055490565b600080610ad8610ad06000805160206143bb8339815191528c8c8c8c604051610a70929190613d7f565b60405180910390208b80519060200120604051602001610ab5959493929190948552602085019390935260ff9190911660408401526060830152608082015260a00190565b60405160208183030381529060405280519060200120611f42565b868686611f90565b9050610b1e8a828b8b8b8080601f0160208091040260200160405190810160405280939291908181526020018383808284376000920191909152508d9250611fae915050565b9a9950505050505050505050565b6000600381805b6003811015610b92576000610b5c60118360038110610b5457610b54614359565b0154876113d7565b9050600081610b6c576000610b6f565b60015b9050610b7b8185614212565b935050508080610b8a906142f2565b915050610b33565b506001600160a01b0384166000908152601060205260409020548211610bbc575060019392505050565b5060009392505050565b606060008054610bd5906142b7565b80601f0160208091040260200160405190810160405280929190818152602001828054610c01906142b7565b8015610c4e5780601f10610c2357610100808354040283529160200191610c4e565b820191906000526020600020905b815481529060010190602001808311610c3157829003601f168201915b5050505050905090565b600080610c6786868686611d84565b90506004610c74826113cc565b6007811115610c8557610c85614343565b14610ce15760405162461bcd60e51b815260206004820152602160248201527f476f7665726e6f723a2070726f706f73616c206e6f74207375636365737366756044820152601b60fa1b60648201526084015b60405180910390fd5b60085460408051630d48571f60e31b815290516000926001600160a01b031691636a42b8f8916004808301926020929190829003018186803b158015610d2657600080fd5b505afa158015610d3a573d6000803e3d6000fd5b505050506040513d601f19601f82011682018060405250810190610d5e91906139a5565b610d689042614212565b9050610d8a610d76826120b0565b60008481526009602052604090209061211c565b60005b8751811015610ff95760085488516001600160a01b039091169063f2b06537908a9084908110610dbf57610dbf614359565b6020026020010151898481518110610dd957610dd9614359565b6020026020010151898581518110610df357610df3614359565b602002602001015186604051602001610e0f9493929190613dbf565b604051602081830303815290604052805190602001206040518263ffffffff1660e01b8152600401610e4391815260200190565b60206040518083038186803b158015610e5b57600080fd5b505afa158015610e6f573d6000803e3d6000fd5b505050506040513d601f19601f82011682018060405250810190610e939190613983565b15610f115760405162461bcd60e51b815260206004820152604260248201527f476f7665726e6f7254696d656c6f636b436f6d706f756e643a206964656e746960448201527f63616c2070726f706f73616c20616374696f6e20616c72656164792071756575606482015261195960f21b608482015260a401610cd8565b60085488516001600160a01b0390911690633a66f901908a9084908110610f3a57610f3a614359565b6020026020010151898481518110610f5457610f54614359565b6020026020010151898581518110610f6e57610f6e614359565b6020026020010151866040518563ffffffff1660e01b8152600401610f969493929190613dbf565b602060405180830381600087803b158015610fb057600080fd5b505af1158015610fc4573d6000803e3d6000fd5b505050506040513d601f19601f82011682018060405250810190610fe891906139a5565b50610ff2816142f2565b9050610d8d565b507f9a2e42fd6722813d69113e7d0079d3d940171428df7373df9c7f7617cfda2892828260405161102b92919061411c565b60405180910390a15095945050505050565b60006110613361104c84611326565b60405180602001604052806000815250612139565b9050600061106f8280614255565b90506103e881111561108057506103e85b803410156110f8576040805162461bcd60e51b81526020600482015260248101919091527f51756164726174696320766f74696e673a20596f75206e656564206d6f72652060448201527f657468657220746f20636f76657220796f757220766f7465207765696768742e6064820152608401610cd8565b505050565b6000611107611a20565b600a546040516370a0823160e01b81526001600160a01b03909116906370a0823190611137903390600401613dab565b60206040518083038186803b15801561114f57600080fd5b505afa158015611163573d6000803e3d6000fd5b505050506040513d601f19601f8201168201806040525081019061118791906139a5565b10156111a55760405162461bcd60e51b8152600401610cd890613fdc565b60006111b386868686611d84565b601554909150600260ff909116101561121457601554819060119060ff16600381106111e1576111e1614359565b01556015805460ff169060006111f68361430d565b91906101000a81548160ff021916908360ff1602179055505061123c565b601554819060119060ff166003811061122f5761122f614359565b01556015805460ff191690555b6112463447614212565b6000828152600f6020526040902060010154106112c15760405162461bcd60e51b815260206004820152603360248201527f476f7665726e6f723a2062756467657420726571756573746564206578636565604482015272323990333ab732399030bb30b4b630b136329760691b6064820152608401610cd8565b6000818152600f6020526040902080546001909101546001600160a01b039091169081906108fc906112f790633b9aca00614255565b6040518115909202916000818181858888f193505050505061131c82888888886121de565b5095945050505050565b60008181526001602090815260408083208151928301909152546001600160401b0316908190525b6001600160401b031692915050565b6000610a2560045490565b6040805160008051602061439b833981519152602082015290810186905260ff8516606082015260009081906113a490610ad090608001610ab5565b90506113c18782886040518060200160405280600081525061236c565b979650505050505050565b6000610a3582612398565b60008281526007602090815260408083206001600160a01b038516845260030190915290205460ff1692915050565b6000803390506114278482856040518060200160405280600081525061236c565b949350505050565b6000828152600f60205260409020546001600160a01b031633146114bb5760405162461bcd60e51b815260206004820152603f60248201527f476f7665726e6f723a206f6e6c79207468652070726f706f7365722063616e2060448201527f7365742074686520627564676574206f66207468652070726f706f73616c2e006064820152608401610cd8565b60006114c6836113cc565b60078111156114d7576114d7614343565b1461154a5760405162461bcd60e51b815260206004820152603e60248201527f476f7665726e6f723a2063616e6e6f74206368616e6765206275646765742e2060448201527f50726f706f73616c20766f746520616c726561647920737461727465642e00006064820152608401610cd8565b6000918252600f602052604090912060010155565b6000803390506113c187828888888080601f0160208091040260200160405190810160405280939291908181526020018383808284376000920191909152508a9250611fae915050565b6115b1610a1b565b6001600160a01b0316336001600160a01b0316146115e15760405162461bcd60e51b8152600401610cd890613e8b565b306115ea610a1b565b6001600160a01b03161461162c576000803660405161160a929190613d7f565b604051809103902090505b806116206002612488565b1461162a57611615565b505b6116358161250b565b50565b60008033905061168086828787878080601f01602080910402602001604051908101604052809392919081815260200183838082843760009201919091525061236c92505050565b9695505050505050565b6000611694611a20565b600a546040516370a0823160e01b81526001600160a01b03909116906370a08231906116c4903390600401613dab565b60206040518083038186803b1580156116dc57600080fd5b505afa1580156116f0573d6000803e3d6000fd5b505050506040513d601f19601f8201168201806040525081019061171491906139a5565b10156117325760405162461bcd60e51b8152600401610cd890613fdc565b60006117478686868680519060200120611d84565b6000818152600f6020526040902080546001600160a01b031916331781559091506113c18787878761254b565b600a54604051600091829182916001600160a01b031690611799903390602001613f41565b60408051601f19818403018152908290526117b391613d8f565b6000604051808303816000865af19150503d80600081146117f0576040519150601f19603f3d011682016040523d82523d6000602084013e6117f5565b606091505b509150915060008180602001905181019061181091906139a5565b905060018110156118335760405162461bcd60e51b8152600401610cd890613f7e565b6000335b90506113c1878288604051806020016040528060008152506040518060200160405280600081525061279e565b6000611871848484612139565b90505b9392505050565b600a54604051600091829182916001600160a01b0316906118a0903390602001613f41565b60408051601f19818403018152908290526118ba91613d8f565b6000604051808303816000865af19150503d80600081146118f7576040519150601f19603f3d011682016040523d82523d6000602084013e6118fc565b606091505b509150915060008180602001905181019061191791906139a5565b9050600181101561193a5760405162461bcd60e51b8152600401610cd890613f7e565b33600090815260106020526040812080546001929061195a908490614212565b909155506000905033611837565b611970610a1b565b6001600160a01b0316336001600160a01b0316146119a05760405162461bcd60e51b8152600401610cd890613e8b565b306119a9610a1b565b6001600160a01b0316146119eb57600080366040516119c9929190613d7f565b604051809103902090505b806119df6002612488565b146119e9576119d4565b505b61163581612869565b60008181526009602090815260408083208151928301909152546001600160401b03169081905261134e565b6000610a2560065490565b600860009054906101000a90046001600160a01b03166001600160a01b0316630e18b6816040518163ffffffff1660e01b8152600401600060405180830381600087803b158015611a7b57600080fd5b505af1158015611a8f573d6000803e3d6000fd5b50505050565b600a54604051600091829182916001600160a01b031690611aba903390602001613f41565b60408051601f1981840301815290829052611ad491613d8f565b6000604051808303816000865af19150503d8060008114611b11576040519150601f19603f3d011682016040523d82523d6000602084013e611b16565b606091505b5091509150600081806020019051810190611b3191906139a5565b90506001811015611b545760405162461bcd60e51b8152600401610cd890613f7e565b6000611b633361104c89611326565b90506000611b718280614255565b90506000662386f26fc100006001841415611b8f5760009150611b9c565b611b998184614255565b91505b81341015611c245760405162461bcd60e51b815260206004820152604960248201527f596f75206e656564206d6f726520657468657220746f20766f7465207769746860448201527f20616c6c204e4654733a20636f7374203d20286e566f746573295e32202a20306064820152681718189032ba3432b960b91b608482015260a401610cd8565b336000908152601060205260408120805460019290611c44908490614212565b9091555060009050339050611c7a8b828c60405180602001604052806000815250604051806020016040528060008152506128d2565b9b9a5050505050505050505050565b60008181526001602081815260408084208151928301909152909101546001600160401b03169081905261134e565b611cc0610a1b565b6001600160a01b0316336001600160a01b031614611cf05760405162461bcd60e51b8152600401610cd890613e8b565b30611cf9610a1b565b6001600160a01b031614611d3b5760008036604051611d19929190613d7f565b604051809103902090505b80611d2f6002612488565b14611d3957611d24565b505b611d7d8483838080601f016020809104026020016040519081016040528093929190818152602001838380828437600092019190915250889250612931915050565b5050505050565b600084848484604051602001611d9d9493929190613e05565b60408051601f19818403018152919052805160209091012095945050505050565b6008546001600160a01b031690565b611dd5610a1b565b6001600160a01b0316336001600160a01b031614611e055760405162461bcd60e51b8152600401610cd890613e8b565b30611e0e610a1b565b6001600160a01b031614611e505760008036604051611e2e929190613d7f565b604051809103902090505b80611e446002612488565b14611e4e57611e39565b505b61163581612957565b60006118748383611e7560408051602081019091526000815290565b612139565b611e82610a1b565b6001600160a01b0316336001600160a01b031614611eb25760405162461bcd60e51b8152600401610cd890613e8b565b30611ebb610a1b565b6001600160a01b031614611efd5760008036604051611edb929190613d7f565b604051809103902090505b80611ef16002612488565b14611efb57611ee6565b505b611635816129f7565b60118160038110611f1657600080fd5b0154905081565b60006001600160e01b03198216636e665ced60e01b1480610a355750610a3582612a37565b6000610a35611f4f612aa2565b8360405161190160f01b6020820152602281018390526042810182905260009060620160405160208183030381529060405280519060200120905092915050565b6000806000611fa187878787612bc9565b9150915061131c81612cac565b6000858152600160208190526040822090611fc8886113cc565b6007811115611fd957611fd9614343565b14611ff65760405162461bcd60e51b8152600401610cd890613efe565b604080516020810190915281546001600160401b03169081905260009061201f90889086612139565b905061202e8888888488612e62565b835161206e57866001600160a01b031660008051602061442483398151915289888489604051612061949392919061412a565b60405180910390a26113c1565b866001600160a01b0316600080516020614404833981519152898884898960405161209d959493929190614152565b60405180910390a2979650505050505050565b60006001600160401b038211156121185760405162461bcd60e51b815260206004820152602660248201527f53616665436173743a2076616c756520646f65736e27742066697420696e203660448201526534206269747360d01b6064820152608401610cd8565b5090565b81546001600160401b0319166001600160401b0391909116179055565b604051630748d63560e31b81526001600160a01b038481166004830152602482018490526000917f000000000000000000000000000000000000000000000000000000000000000090911690633a46b1a89060440160206040518083038186803b1580156121a657600080fd5b505afa1580156121ba573d6000803e3d6000fd5b505050506040513d601f19601f8201168201806040525081019061187191906139a5565b60006121e9866119f4565b9050600081116122555760405162461bcd60e51b815260206004820152603160248201527f476f7665726e6f7254696d656c6f636b436f6d706f756e643a2070726f706f73604482015270185b081b9bdd081e595d081c5d595d5959607a1b6064820152608401610cd8565b60085461226b906001600160a01b031634612fe9565b60005b85518110156123635760085486516001600160a01b0390911690630825f38f908890849081106122a0576122a0614359565b60200260200101518784815181106122ba576122ba614359565b60200260200101518785815181106122d4576122d4614359565b6020026020010151866040518563ffffffff1660e01b81526004016122fc9493929190613dbf565b600060405180830381600087803b15801561231657600080fd5b505af115801561232a573d6000803e3d6000fd5b505050506040513d6000823e601f3d908101601f1916820160405261235291908101906139e8565b5061235c816142f2565b905061226e565b50505050505050565b600061238f8585858561238a60408051602081019091526000815290565b611fae565b95945050505050565b6000806123a4836130ff565b905060048160078111156123ba576123ba614343565b146123c55792915050565b60006123d0846119f4565b9050806123de575092915050565b600860009054906101000a90046001600160a01b03166001600160a01b031663c1a287e26040518163ffffffff1660e01b815260040160206040518083038186803b15801561242c57600080fd5b505afa158015612440573d6000803e3d6000fd5b505050506040513d601f19601f8201168201806040525081019061246491906139a5565b61246e9082614212565b421061247e575060069392505050565b5060059392505050565b60006124a78254600f81810b810b600160801b909204810b900b131590565b156124c557604051631ed9509560e11b815260040160405180910390fd5b508054600f90810b80820b820b600090815260018085016020526040822080549290558454920190920b6001600160801b03166001600160801b03199091161790915590565b7fc565b045403dc03c2eea82b81a0465edad9e2e7fc4d97e11421c209da93d7a936004548260405161253e92919061411c565b60405180910390a1600455565b6000612555611a20565b61256433610955600143614274565b10156125825760405162461bcd60e51b8152600401610cd890613fdc565b60006125978686868680519060200120611d84565b905084518651146125ba5760405162461bcd60e51b8152600401610cd890613ebd565b83518651146125db5760405162461bcd60e51b8152600401610cd890613ebd565b60008651116126275760405162461bcd60e51b815260206004820152601860248201527711dbdd995c9b9bdc8e88195b5c1d1e481c1c9bdc1bdcd85b60421b6044820152606401610cd8565b600081815260016020908152604091829020825191820190925281546001600160401b031690819052156126a75760405162461bcd60e51b815260206004820152602160248201527f476f7665726e6f723a2070726f706f73616c20616c72656164792065786973746044820152607360f81b6064820152608401610cd8565b60006126b96126b461135d565b6120b0565b6126c2436120b0565b6126cc919061422a565b905060006126db6126b4610a3b565b6126e5908361422a565b90506126f1838361211c565b6126fe600184018261211c565b7f7d84a6263ae0d98d3329bd7b46bb4e8d6f98cd35a7adb45c274c8b7fd5ebd5e084338b8b8d516001600160401b0381111561273c5761273c61436f565b60405190808252806020026020018201604052801561276f57816020015b606081526020019060019003908161275a5790505b508c88888e6040516127899998979695949392919061402d565b60405180910390a15091979650505050505050565b600060016127ab876113cc565b60078111156127bc576127bc614343565b146127d95760405162461bcd60e51b8152600401610cd890613efe565b60016127e88787878487612e62565b825161282857856001600160a01b03166000805160206144248339815191528887848860405161281b949392919061412a565b60405180910390a2611680565b856001600160a01b03166000805160206144048339815191528887848888604051612857959493929190614152565b60405180910390a29695505050505050565b600854604080516001600160a01b03928316815291831660208301527f08f74ea46ef7894f65eabfb5e6e695de773a000b47c529ab559178069b226401910160405180910390a1600880546001600160a01b0319166001600160a01b0392909216919091179055565b600060016128df876113cc565b60078111156128f0576128f0614343565b1461290d5760405162461bcd60e51b8152600401610cd890613efe565b60006129228661291c89611326565b85612139565b90506127e88787878487612e62565b60606118718484846040518060600160405280602981526020016143db6029913961320b565b600081116129b75760405162461bcd60e51b815260206004820152602760248201527f476f7665726e6f7253657474696e67733a20766f74696e6720706572696f6420604482015266746f6f206c6f7760c81b6064820152608401610cd8565b7f7e3f7f0708a84de9203036abaa450dccc85ad5ff52f78c170f3edb55cf5e8828600554826040516129ea92919061411c565b60405180910390a1600555565b7fccb45da8d5717e6c4544694297c4ba5cf151d455c9bb0ed4fc7a38411bc0546160065482604051612a2a92919061411c565b60405180910390a1600655565b60006001600160e01b0319821663bf26d89760e01b1480612a6857506001600160e01b031982166379dd796f60e01b145b80612a8357506001600160e01b03198216630271189760e51b145b80610a3557506301ffc9a760e01b6001600160e01b0319831614610a35565b6000306001600160a01b037f000000000000000000000000000000000000000000000000000000000000000016148015612afb57507f000000000000000000000000000000000000000000000000000000000000000046145b15612b2557507f000000000000000000000000000000000000000000000000000000000000000090565b50604080517f00000000000000000000000000000000000000000000000000000000000000006020808301919091527f0000000000000000000000000000000000000000000000000000000000000000828401527f000000000000000000000000000000000000000000000000000000000000000060608301524660808301523060a0808401919091528351808403909101815260c0909201909252805191012090565b6000806fa2a8918ca85bafe22016d0b997e4df60600160ff1b03831115612bf65750600090506003612ca3565b8460ff16601b14158015612c0e57508460ff16601c14155b15612c1f5750600090506004612ca3565b6040805160008082526020820180845289905260ff881692820192909252606081018690526080810185905260019060a0016020604051602081039080840390855afa158015612c73573d6000803e3d6000fd5b5050604051601f1901519150506001600160a01b038116612c9c57600060019250925050612ca3565b9150600090505b94509492505050565b6000816004811115612cc057612cc0614343565b1415612cc95750565b6001816004811115612cdd57612cdd614343565b1415612d265760405162461bcd60e51b815260206004820152601860248201527745434453413a20696e76616c6964207369676e617475726560401b6044820152606401610cd8565b6002816004811115612d3a57612d3a614343565b1415612d885760405162461bcd60e51b815260206004820152601f60248201527f45434453413a20696e76616c6964207369676e6174757265206c656e677468006044820152606401610cd8565b6003816004811115612d9c57612d9c614343565b1415612df55760405162461bcd60e51b815260206004820152602260248201527f45434453413a20696e76616c6964207369676e6174757265202773272076616c604482015261756560f01b6064820152608401610cd8565b6004816004811115612e0957612e09614343565b14156116355760405162461bcd60e51b815260206004820152602260248201527f45434453413a20696e76616c6964207369676e6174757265202776272076616c604482015261756560f01b6064820152608401610cd8565b60008581526007602090815260408083206001600160a01b0388168452600381019092529091205460ff1615612eea5760405162461bcd60e51b815260206004820152602760248201527f476f7665726e6f72566f74696e6753696d706c653a20766f746520616c726561604482015266191e4818d85cdd60ca1b6064820152608401610cd8565b6001600160a01b03851660009081526003820160205260408120805460ff1916600117905560ff168460ff161415612f3b5782816000016000828254612f309190614212565b90915550612fe19050565b60ff841660011415612f5b5782816001016000828254612f309190614212565b60ff841660021415612f7b5782816002016000828254612f309190614212565b60405162461bcd60e51b815260206004820152603560248201527f476f7665726e6f72566f74696e6753696d706c653a20696e76616c69642076616044820152746c756520666f7220656e756d20566f74655479706560581b6064820152608401610cd8565b505050505050565b804710156130395760405162461bcd60e51b815260206004820152601d60248201527f416464726573733a20696e73756666696369656e742062616c616e63650000006044820152606401610cd8565b6000826001600160a01b03168260405160006040518083038185875af1925050503d8060008114613086576040519150601f19603f3d011682016040523d82523d6000602084013e61308b565b606091505b50509050806110f85760405162461bcd60e51b815260206004820152603a60248201527f416464726573733a20756e61626c6520746f2073656e642076616c75652c20726044820152791958da5c1a595b9d081b585e481a185d99481c995d995c9d195960321b6064820152608401610cd8565b6000818152600160205260408120600281015460ff16156131235750600792915050565b6002810154610100900460ff161561313e5750600292915050565b600061314984611326565b9050806131985760405162461bcd60e51b815260206004820152601d60248201527f476f7665726e6f723a20756e6b6e6f776e2070726f706f73616c2069640000006044820152606401610cd8565b4381106131a9575060009392505050565b60006131b485611c89565b90504381106131c857506001949350505050565b6131d185613331565b80156131f0575060008581526007602052604090208054600190910154115b1561320057506004949350505050565b506003949350505050565b60608247101561326c5760405162461bcd60e51b815260206004820152602660248201527f416464726573733a20696e73756666696369656e742062616c616e636520666f6044820152651c8818d85b1b60d21b6064820152608401610cd8565b6001600160a01b0385163b6132c35760405162461bcd60e51b815260206004820152601d60248201527f416464726573733a2063616c6c20746f206e6f6e2d636f6e74726163740000006044820152606401610cd8565b600080866001600160a01b031685876040516132df9190613d8f565b60006040518083038185875af1925050503d806000811461331c576040519150601f19603f3d011682016040523d82523d6000602084013e613321565b606091505b50915091506113c1828286613368565b6000818152600760205260408120600281015460018201546133539190614212565b61335f6109c185611326565b11159392505050565b60608315613377575081611874565b8251156133875782518084602001fd5b8160405162461bcd60e51b8152600401610cd89190613e78565b60006133b46133af846141eb565b614198565b90508281528383830111156133c857600080fd5b828260208301376000602084830101529392505050565b600082601f8301126133f057600080fd5b813560206134006133af836141c8565b80838252828201915082860187848660051b890101111561342057600080fd5b60005b8581101561344857813561343681614385565b84529284019290840190600101613423565b5090979650505050505050565b600082601f83011261346657600080fd5b813560206134766133af836141c8565b80838252828201915082860187848660051b890101111561349657600080fd5b6000805b868110156134d85782356001600160401b038111156134b7578283fd5b6134c58b88838d010161358e565b865250938501939185019160010161349a565b509198975050505050505050565b600082601f8301126134f757600080fd5b813560206135076133af836141c8565b80838252828201915082860187848660051b890101111561352757600080fd5b60005b858110156134485781358452928401929084019060010161352a565b60008083601f84011261355857600080fd5b5081356001600160401b0381111561356f57600080fd5b60208301915083602082850101111561358757600080fd5b9250929050565b600082601f83011261359f57600080fd5b611874838335602085016133a1565b803560ff811681146135bf57600080fd5b919050565b6000602082840312156135d657600080fd5b813561187481614385565b600080600080600060a086880312156135f957600080fd5b853561360481614385565b9450602086013561361481614385565b935060408601356001600160401b038082111561363057600080fd5b61363c89838a016134e6565b9450606088013591508082111561365257600080fd5b61365e89838a016134e6565b9350608088013591508082111561367457600080fd5b506136818882890161358e565b9150509295509295909350565b600080600080608085870312156136a457600080fd5b84356136af81614385565b935060208501356136bf81614385565b92506040850135915060608501356001600160401b038111156136e157600080fd5b6136ed8782880161358e565b91505092959194509250565b600080600080600060a0868803121561371157600080fd5b853561371c81614385565b9450602086013561372c81614385565b9350604086013592506060860135915060808601356001600160401b0381111561375557600080fd5b6136818882890161358e565b6000806040838503121561377457600080fd5b823561377f81614385565b946020939093013593505050565b600080600080606085870312156137a357600080fd5b84356137ae81614385565b93506020850135925060408501356001600160401b038111156137d057600080fd5b6137dc87828801613546565b95989497509550505050565b6000806000606084860312156137fd57600080fd5b833561380881614385565b92506020840135915060408401356001600160401b0381111561382a57600080fd5b6138368682870161358e565b9150509250925092565b6000806000806080858703121561385657600080fd5b84356001600160401b038082111561386d57600080fd5b613879888389016133df565b9550602087013591508082111561388f57600080fd5b61389b888389016134e6565b945060408701359150808211156138b157600080fd5b506138be87828801613455565b949793965093946060013593505050565b600080600080608085870312156138e557600080fd5b84356001600160401b03808211156138fc57600080fd5b613908888389016133df565b9550602087013591508082111561391e57600080fd5b61392a888389016134e6565b9450604087013591508082111561394057600080fd5b61394c88838901613455565b9350606087013591508082111561396257600080fd5b508501601f8101871361397457600080fd5b6136ed878235602084016133a1565b60006020828403121561399557600080fd5b8151801515811461187457600080fd5b6000602082840312156139b757600080fd5b5051919050565b6000602082840312156139d057600080fd5b81356001600160e01b03198116811461187457600080fd5b6000602082840312156139fa57600080fd5b81516001600160401b03811115613a1057600080fd5b8201601f81018413613a2157600080fd5b8051613a2f6133af826141eb565b818152856020838501011115613a4457600080fd5b61238f82602083016020860161428b565b600060208284031215613a6757600080fd5b5035919050565b60008060408385031215613a8157600080fd5b823591506020830135613a9381614385565b809150509250929050565b60008060408385031215613ab157600080fd5b50508035926020909101359150565b60008060408385031215613ad357600080fd5b82359150613ae3602084016135ae565b90509250929050565b60008060008060608587031215613b0257600080fd5b84359350613b12602086016135ae565b925060408501356001600160401b038111156137d057600080fd5b600080600080600060808688031215613b4557600080fd5b85359450613b55602087016135ae565b935060408601356001600160401b0380821115613b7157600080fd5b613b7d89838a01613546565b9095509350606088013591508082111561367457600080fd5b60008060008060008060008060e0898b031215613bb257600080fd5b88359750613bc260208a016135ae565b965060408901356001600160401b0380821115613bde57600080fd5b613bea8c838d01613546565b909850965060608b0135915080821115613c0357600080fd5b50613c108b828c0161358e565b945050613c1f60808a016135ae565b925060a0890135915060c089013590509295985092959890939650565b600080600080600060a08688031215613c5457600080fd5b85359450613c64602087016135ae565b9350613c72604087016135ae565b94979396509394606081013594506080013592915050565b600081518084526020808501945080840160005b83811015613cc35781516001600160a01b031687529582019590820190600101613c9e565b509495945050505050565b600081518084526020808501808196508360051b8101915082860160005b85811015613d16578284038952613d04848351613d53565b98850198935090840190600101613cec565b5091979650505050505050565b600081518084526020808501945080840160005b83811015613cc357815187529582019590820190600101613d37565b60008151808452613d6b81602086016020860161428b565b601f01601f19169290920160200192915050565b8183823760009101908152919050565b60008251613da181846020870161428b565b9190910192915050565b6001600160a01b0391909116815260200190565b60018060a01b038516815283602082015260a06040820152600060a082015260c060608201526000613df460c0830185613d53565b905082608083015295945050505050565b608081526000613e186080830187613c8a565b8281036020840152613e2a8187613d23565b90508281036040840152613e3e8186613cce565b91505082606083015295945050505050565b6020810160088310613e7257634e487b7160e01b600052602160045260246000fd5b91905290565b6020815260006118746020830184613d53565b602080825260189082015277476f7665726e6f723a206f6e6c79476f7665726e616e636560401b604082015260600190565b60208082526021908201527f476f7665726e6f723a20696e76616c69642070726f706f73616c206c656e67746040820152600d60fb1b606082015260800190565b60208082526023908201527f476f7665726e6f723a20766f7465206e6f742063757272656e746c792061637460408201526269766560e81b606082015260800190565b60408082526012908201527162616c616e63654f6628616464726573732960701b60608201526001600160a01b0391909116602082015260800190565b602080825260409082018190527f596f75206e656564206174206c65617374206f6e652070726f6a656374204e46908201527f5420746f2074616b65207061727420696e2044414f20476f7665726e616e6365606082015260800190565b60208082526031908201527f476f7665726e6f723a2070726f706f73657220766f7465732062656c6f7720706040820152701c9bdc1bdcd85b081d1a1c995cda1bdb19607a1b606082015260800190565b60006101208b8352602060018060a01b038c16818501528160408501526140568285018c613c8a565b9150838203606085015261406a828b613d23565b915083820360808501528189518084528284019150828160051b850101838c0160005b838110156140bb57601f198784030185526140a9838351613d53565b9486019492509085019060010161408d565b505086810360a08801526140cf818c613cce565b9450505050506140ea60c08401876001600160401b03169052565b6001600160401b03851660e084015282810361010084015261410c8185613d53565b9c9b505050505050505050505050565b918252602082015260400190565b84815260ff841660208201528260408201526080606082015260006116806080830184613d53565b85815260ff8516602082015283604082015260a06060820152600061417a60a0830185613d53565b828103608084015261418c8185613d53565b98975050505050505050565b604051601f8201601f191681016001600160401b03811182821017156141c0576141c061436f565b604052919050565b60006001600160401b038211156141e1576141e161436f565b5060051b60200190565b60006001600160401b038211156142045761420461436f565b50601f01601f191660200190565b600082198211156142255761422561432d565b500190565b60006001600160401b0382811684821680830382111561424c5761424c61432d565b01949350505050565b600081600019048311821515161561426f5761426f61432d565b500290565b6000828210156142865761428661432d565b500390565b60005b838110156142a657818101518382015260200161428e565b83811115611a8f5750506000910152565b600181811c908216806142cb57607f821691505b602082108114156142ec57634e487b7160e01b600052602260045260246000fd5b50919050565b60006000198214156143065761430661432d565b5060010190565b600060ff821660ff8114156143245761432461432d565b60010192915050565b634e487b7160e01b600052601160045260246000fd5b634e487b7160e01b600052602160045260246000fd5b634e487b7160e01b600052603260045260246000fd5b634e487b7160e01b600052604160045260246000fd5b6001600160a01b038116811461163557600080fdfe150214d74d59b7d1e90c73fc22ef3d991dd0a76b046543d4d80ab92d2a50328fb3b3f3b703cd84ce352197dcff232b1b5d3cfb2025ce47cf04742d0651f1af88416464726573733a206c6f772d6c6576656c2063616c6c20776974682076616c7565206661696c6564e2babfbac5889a709b63bb7f598b324e08bc5a4fb9ec647fb3cbc9ec07eb8712b8e138887d0aa13bab447e82de9d5c1777041ecd21ca36ba824ff1e6c07ddda4a164736f6c6343000806000a",
  "linkReferences": {},
  "deployedLinkReferences": {}
}